{
  "contractName": "StudyGroup",
  "abi": [
    {
      "constant": true,
      "inputs": [
        {
          "name": "index",
          "type": "uint256"
        }
      ],
      "name": "getMemberIndexInfo",
      "outputs": [
        {
          "name": "",
          "type": "address"
        },
        {
          "name": "",
          "type": "bytes32"
        },
        {
          "name": "",
          "type": "uint256"
        },
        {
          "name": "",
          "type": "uint256"
        }
      ],
      "payable": false,
      "stateMutability": "view",
      "type": "function"
    },
    {
      "constant": false,
      "inputs": [
        {
          "name": "_index",
          "type": "uint256"
        },
        {
          "name": "_memberAddress",
          "type": "address"
        },
        {
          "name": "_person_id",
          "type": "bytes32"
        },
        {
          "name": "_study_id",
          "type": "uint256"
        },
        {
          "name": "_numOfCoins",
          "type": "uint256"
        }
      ],
      "name": "createIndexTheStudy",
      "outputs": [],
      "payable": false,
      "stateMutability": "nonpayable",
      "type": "function"
    },
    {
      "constant": false,
      "inputs": [
        {
          "name": "_sender",
          "type": "address"
        }
      ],
      "name": "transferCoin",
      "outputs": [],
      "payable": true,
      "stateMutability": "payable",
      "type": "function"
    }
  ],
  "bytecode": "0x608060405234801561001057600080fd5b506103a6806100206000396000f300608060405260043610610057576000357c0100000000000000000000000000000000000000000000000000000000900463ffffffff168063563070961461005c5780636dab6f83146100925780638c2beb3d14610101575b600080fd5b610090600480360381019080803573ffffffffffffffffffffffffffffffffffffffff16906020019092919050505061018b565b005b34801561009e57600080fd5b506100ff60048036038101908080359060200190929190803573ffffffffffffffffffffffffffffffffffffffff169060200190929190803560001916906020019092919080359060200190929190803590602001909291905050506101d5565b005b34801561010d57600080fd5b5061012c600480360381019080803590602001909291905050506102a9565b604051808573ffffffffffffffffffffffffffffffffffffffff1673ffffffffffffffffffffffffffffffffffffffff168152602001846000191660001916815260200183815260200182815260200194505050505060405180910390f35b8073ffffffffffffffffffffffffffffffffffffffff166108fc349081150290604051600060405180830381858888f193505050501580156101d1573d6000803e3d6000fd5b5050565b6080604051908101604052808573ffffffffffffffffffffffffffffffffffffffff1681526020018460001916815260200183815260200182815250600080808152602001908152602001600020600087815260200190815260200160002060008201518160000160006101000a81548173ffffffffffffffffffffffffffffffffffffffff021916908373ffffffffffffffffffffffffffffffffffffffff1602179055506020820151816001019060001916905560408201518160020155606082015181600301559050505050505050565b600080600080600080808152602001908152602001600020600086815260200190815260200160002060000160009054906101000a900473ffffffffffffffffffffffffffffffffffffffff16600080808152602001908152602001600020600087815260200190815260200160002060010154600080808152602001908152602001600020600088815260200190815260200160002060020154600080808152602001908152602001600020600089815260200190815260200160002060030154935093509350935091935091935600a165627a7a723058208b4eec0e105be28809a1a32b58ee30cea1caa068c99c7587baa8d6c1f53a029b0029",
  "source": "pragma solidity ^0.4.25;\r\n\r\ncontract StudyGroup {\r\n\r\n    // 스터디원 구조체\r\n    struct studyMember {\r\n        address memberAddress; // 계좌번호\r\n        bytes32 person_id; // solidity는 string에 최적화되어 있지 않고, bytes32에 최적화\r\n        uint study_id;// 가입할 study_id\r\n        // uint leader; // 1이면 리더\r\n        // uint study_period; // 스터디 기간\r\n        // 스터디 시작일자\r\n        // 스터디 종료일자\r\n        uint numOfCoins; // 해당 스터디 안에서 자신만의 코인\r\n    }\r\n\r\n    // 스터디 구조체\r\n    struct eachStudy {\r\n        uint study_id;\r\n        studyMember[] members;\r\n    }\r\n\r\n    // 생성자 필요할까? 고민 중.\r\n\r\n    // 스터디원 배열\r\n    mapping(uint => mapping(uint => studyMember)) memberInfo;\r\n\r\n    function getMemberIndexInfo(uint index) view external returns(address, bytes32, uint, uint) {\r\n          return (memberInfo[0][index].memberAddress, memberInfo[0][index].person_id, memberInfo[0][index].study_id , memberInfo[0][index].numOfCoins);\r\n    }\r\n    \r\n    function createIndexTheStudy(uint _index,address _memberAddress,bytes32 _person_id,uint _study_id, uint _numOfCoins) public {\r\n        //memberInfo[_index] = studyMember(_memberAddress, _person_id, _study_id, _numOfCoins);\r\n        memberInfo[0][_index] = studyMember(_memberAddress, _person_id, _study_id, _numOfCoins);\r\n    }\r\n\r\n    // 송금\r\n    function transferCoin(address _sender) public payable {\r\n        _sender.transfer(msg.value);\r\n    }\r\n\r\n   \r\n    // 아래 소스 지우면 안됨. 그대로는 안쓰더라도 틀로 이용 예정임.\r\n    // study 최초 생성자가 호출하는 메소드\r\n    // function createTheStudy(address _memberAddress, bytes32 _person_id, uint _study_id, uint _numOfCoins) external {\r\n        \r\n    //     //studies.push(_study_id, studyMember(_memberAddress, _person_id, _study_id, _numOfCoins));\r\n    //     // 계정 만드는것이 필요. -> js에서 web3로 만들고\r\n    //     // 만든 계정(msg.sender)에 관리자 계정에서 돈 가져다가 돈 충전해주는 걸 transfer로 하기\r\n\r\n        \r\n    // }\r\n\r\n\r\n    // // study 최초 생성자가 호출하는 메소드\r\n    // function createTheStudy(address _memberAddress, bytes32 _person_id, uint _study_id, uint _numOfCoins) external payable {\r\n        \r\n    //     studies.push(_study_id, studyMember(_memberAddress, _person_id, _study_id, _numOfCoins));\r\n    //     // 계정 만드는것이 필요. -> js에서 web3로 만들고\r\n    //     // 만든 계정(msg.sender)에 관리자 계정에서 돈 가져다가 돈 충전해주는 걸 transfer로 하기\r\n\r\n        \r\n    //     }\r\n    // }\r\n\r\n    // // study에 가입하는 메소드\r\n    // function joinTheStudy(address _memberAddress, bytes32 _person_id, uint _study_id, uint _numOfCoins) external payable {\r\n    //     // http://blog.naver.com/PostView.nhn?blogId=blokorea&logNo=221309181242&redirect=Dlog&widgetTypeCall=true&directAccess=false\r\n    //     int index = 0;\r\n    //     while(_study_id < studies.length){\r\n    //         if(_study_id == studies[index].study_id){\r\n    //             studies[index].members.push(studyMember(_memberAddress, _person_id, _study_id, _numOfCoins));\r\n    //             index++;\r\n    //         }\r\n    //     }\r\n\r\n    //     //members.push(studyMember(_memberAddress, _person_id, _study_id, _numOfCoins));\r\n    //     // 계정 만드는것이 필요. -> js에서 web3로 만들고\r\n    //     // 만든 계정(msg.sender)에 관리자 계정에서 돈 가져다가 돈 충전해주는 걸 transfer로 하기\r\n\r\n        \r\n    //     }\r\n    // }\r\n\r\n    // // study 기간이 끝날 때 코인을 환급받는 메소드\r\n    // // js에서 타이머처럼 시간 검사해서 일정시간되면 실행되는 메소드\r\n    // // 여기에 매개변수가 있다는 건 js에서 이 함수 실행할 때 매개변수를 넘긴다는 의미.\r\n    // function endTheStudy() external payable {\r\n    \r\n\r\n    // }\r\n\r\n    // // 자신의 코인을 확인하는 메소드\r\n    // function getNumOfCoins(uint _study_id, bytes32 _person_id) external view returns(uint) {\r\n    //     return numOfCoins;\r\n    // }\r\n}\r\n",
  "sourcePath": "C:\\Users\\skskj\\project\\git\\p04\\p26\\p2\\app_v1\\contracts\\StudyGroup.sol",
  "compiler": {
    "name": "solc",
    "version": "0.4.25+commit.59dbf8f1.Emscripten.clang"
  },
  "schemaVersion": "2.0.2",
  "updatedAt": "2019-04-26T10:17:28.166Z"
}