{
  "contractName": "StudyGroup",
  "abi": [
    {
      "constant": false,
      "inputs": [
        {
          "name": "_studyId",
          "type": "uint256"
        },
        {
          "name": "_endDate",
          "type": "bytes32"
        }
      ],
      "name": "setStudyEndTransfer",
      "outputs": [],
      "payable": false,
      "stateMutability": "nonpayable",
      "type": "function"
    },
    {
      "constant": true,
      "inputs": [
        {
          "name": "_studyId",
          "type": "uint256"
        }
      ],
      "name": "getStudyEndTransfer",
      "outputs": [
        {
          "components": [
            {
              "name": "endDate",
              "type": "bytes32"
            },
            {
              "name": "isEndDateDeal",
              "type": "bool"
            }
          ],
          "name": "",
          "type": "tuple"
        }
      ],
      "payable": false,
      "stateMutability": "view",
      "type": "function"
    },
    {
      "constant": true,
      "inputs": [],
      "name": "getStudyEndTransferManageList",
      "outputs": [
        {
          "components": [
            {
              "name": "studyId",
              "type": "uint256"
            },
            {
              "name": "personId",
              "type": "bytes32"
            },
            {
              "name": "personName",
              "type": "bytes32"
            },
            {
              "name": "receiveEther",
              "type": "uint256"
            },
            {
              "name": "endDate",
              "type": "bytes32"
            }
          ],
          "name": "",
          "type": "tuple[]"
        }
      ],
      "payable": false,
      "stateMutability": "view",
      "type": "function"
    },
    {
      "constant": true,
      "inputs": [
        {
          "name": "_study_id",
          "type": "uint256"
        }
      ],
      "name": "getStudyEndTransferList",
      "outputs": [
        {
          "components": [
            {
              "name": "studyId",
              "type": "uint256"
            },
            {
              "name": "personId",
              "type": "bytes32"
            },
            {
              "name": "personName",
              "type": "bytes32"
            },
            {
              "name": "receiveEther",
              "type": "uint256"
            },
            {
              "name": "endDate",
              "type": "bytes32"
            }
          ],
          "name": "",
          "type": "tuple[]"
        }
      ],
      "payable": false,
      "stateMutability": "view",
      "type": "function"
    },
    {
      "constant": false,
      "inputs": [
        {
          "name": "_studyId",
          "type": "uint256"
        }
      ],
      "name": "renameStudyEndTransfer",
      "outputs": [],
      "payable": false,
      "stateMutability": "nonpayable",
      "type": "function"
    },
    {
      "constant": false,
      "inputs": [
        {
          "name": "_studyId",
          "type": "uint256"
        },
        {
          "name": "_personId",
          "type": "bytes32"
        },
        {
          "name": "_receiveEther",
          "type": "uint256"
        },
        {
          "name": "_endDate",
          "type": "bytes32"
        }
      ],
      "name": "endTheStudy",
      "outputs": [],
      "payable": true,
      "stateMutability": "payable",
      "type": "function"
    },
    {
      "constant": false,
      "inputs": [
        {
          "name": "_senderId",
          "type": "bytes32"
        },
        {
          "name": "_receiverId",
          "type": "bytes32"
        },
        {
          "name": "_coin",
          "type": "uint256"
        },
        {
          "name": "_date",
          "type": "bytes32"
        },
        {
          "name": "_study_id",
          "type": "uint256"
        }
      ],
      "name": "setTardinessTransfer",
      "outputs": [],
      "payable": true,
      "stateMutability": "payable",
      "type": "function"
    },
    {
      "constant": true,
      "inputs": [
        {
          "name": "_study_id",
          "type": "uint256"
        }
      ],
      "name": "getTardinessTransfer",
      "outputs": [
        {
          "components": [
            {
              "name": "senderId",
              "type": "bytes32"
            },
            {
              "name": "sendName",
              "type": "bytes32"
            },
            {
              "name": "receiverName",
              "type": "bytes32"
            },
            {
              "name": "coin",
              "type": "uint256"
            },
            {
              "name": "date",
              "type": "bytes32"
            }
          ],
          "name": "",
          "type": "tuple[]"
        },
        {
          "name": "",
          "type": "uint256"
        }
      ],
      "payable": false,
      "stateMutability": "view",
      "type": "function"
    },
    {
      "constant": true,
      "inputs": [
        {
          "name": "_study_id",
          "type": "uint256"
        },
        {
          "name": "_person_id",
          "type": "bytes32"
        }
      ],
      "name": "getPersonInfoOfStudy",
      "outputs": [
        {
          "components": [
            {
              "name": "memberAddress",
              "type": "address"
            },
            {
              "name": "person_id",
              "type": "bytes32"
            },
            {
              "name": "study_id",
              "type": "uint256"
            },
            {
              "name": "person_name",
              "type": "bytes32"
            }
          ],
          "name": "",
          "type": "tuple"
        }
      ],
      "payable": false,
      "stateMutability": "view",
      "type": "function"
    },
    {
      "constant": false,
      "inputs": [
        {
          "name": "_study_id",
          "type": "uint256"
        },
        {
          "name": "_person_id",
          "type": "bytes32"
        },
        {
          "name": "_memberAddress",
          "type": "address"
        },
        {
          "name": "_person_name",
          "type": "bytes32"
        }
      ],
      "name": "setPersonInfoOfStudy",
      "outputs": [],
      "payable": true,
      "stateMutability": "payable",
      "type": "function"
    },
    {
      "constant": false,
      "inputs": [
        {
          "name": "_receiver",
          "type": "address"
        }
      ],
      "name": "chargeTheCoin",
      "outputs": [],
      "payable": true,
      "stateMutability": "payable",
      "type": "function"
    },
    {
      "constant": false,
      "inputs": [
        {
          "name": "_senderId",
          "type": "bytes32"
        },
        {
          "name": "_receiverId",
          "type": "bytes32"
        },
        {
          "name": "_coin",
          "type": "uint256"
        },
        {
          "name": "_date",
          "type": "bytes32"
        },
        {
          "name": "_study_id",
          "type": "uint256"
        }
      ],
      "name": "setStudyQuizTransfer",
      "outputs": [],
      "payable": true,
      "stateMutability": "payable",
      "type": "function"
    },
    {
      "constant": true,
      "inputs": [
        {
          "name": "_study_id",
          "type": "uint256"
        }
      ],
      "name": "getStudyQuizTransfer",
      "outputs": [
        {
          "components": [
            {
              "name": "senderId",
              "type": "bytes32"
            },
            {
              "name": "sendName",
              "type": "bytes32"
            },
            {
              "name": "receiverName",
              "type": "bytes32"
            },
            {
              "name": "coin",
              "type": "uint256"
            },
            {
              "name": "date",
              "type": "bytes32"
            }
          ],
          "name": "",
          "type": "tuple[]"
        },
        {
          "name": "",
          "type": "uint256"
        }
      ],
      "payable": false,
      "stateMutability": "view",
      "type": "function"
    }
  ],
  "bytecode": "0x608060405234801561001057600080fd5b50611892806100206000396000f3006080604052600436106100c4576000357c0100000000000000000000000000000000000000000000000000000000900463ffffffff168062d872ea146100c957806303718419146100e5578063151a992914610101578063156e61a51461013f578063370e76f91461015b57806357eb6e70146101985780636e089eaf146101c157806370a88947146101ff578063ca0c981b1461023c578063d8284e1f14610267578063db63e43614610290578063e69adac9146102ac578063ea31f87d146102c8575b600080fd5b6100e360048036036100de9190810190611351565b610305565b005b6100ff60048036036100fa91908101906112ee565b6104da565b005b34801561010d57600080fd5b5061012860048036036101239190810190611289565b610606565b6040516101369291906116df565b60405180910390f35b610159600480360361015491908101906111e9565b6106d7565b005b34801561016757600080fd5b50610182600480360361017d9190810190611289565b610721565b60405161018f91906116bd565b60405180910390f35b3480156101a457600080fd5b506101bf60048036036101ba91908101906112b2565b6107de565b005b3480156101cd57600080fd5b506101e860048036036101e39190810190611289565b610850565b6040516101f692919061170f565b60405180910390f35b34801561020b57600080fd5b50610226600480360361022191908101906112b2565b610921565b604051610233919061175a565b60405180910390f35b34801561024857600080fd5b506102516109ec565b60405161025e91906116bd565b60405180910390f35b34801561027357600080fd5b5061028e60048036036102899190810190611289565b610a96565b005b6102aa60048036036102a59190810190611212565b610ac8565b005b6102c660048036036102c19190810190611212565b610d83565b005b3480156102d457600080fd5b506102ef60048036036102ea9190810190611289565b61103e565b6040516102fc919061173f565b60405180910390f35b600061030f611098565b60008060008881526020019081526020016000206000876000191660001916815260200190815260200160002060030154925060a0604051908101604052808881526020018760001916815260200184600019168152602001868152602001856000191681525091506003600088815260200190815260200160002082908060018154018082558091505090600182039060005260206000209060050201600090919290919091506000820151816000015560208201518160010190600019169055604082015181600201906000191690556060820151816003015560808201518160040190600019169055505050600482908060018154018082558091505090600182039060005260206000209060050201600090919290919091506000820151816000015560208201518160010190600019169055604082015181600201906000191690556060820151816003015560808201518160040190600019169055505050736a514e7125b87a7ca5eb230abd9e02eebb3d678e90508073ffffffffffffffffffffffffffffffffffffffff166108fc349081150290604051600060405180830381858888f193505050501580156104d0573d6000803e3d6000fd5b5050505050505050565b6080604051908101604052808373ffffffffffffffffffffffffffffffffffffffff1681526020018460001916815260200185815260200182600019168152506000808681526020019081526020016000206000856000191660001916815260200190815260200160002060008201518160000160006101000a81548173ffffffffffffffffffffffffffffffffffffffff021916908373ffffffffffffffffffffffffffffffffffffffff1602179055506020820151816001019060001916905560408201518160020155606082015181600301906000191690559050508173ffffffffffffffffffffffffffffffffffffffff166108fc349081150290604051600060405180830381858888f193505050501580156105ff573d6000803e3d6000fd5b5050505050565b60606000606060056000858152602001908152602001600020805480602002602001604051908101604052809291908181526020016000905b828210156106c4578382906000526020600020906005020160a060405190810160405290816000820154600019166000191681526020016001820154600019166000191681526020016002820154600019166000191681526020016003820154815260200160048201546000191660001916815250508152602001906001019061063f565b5050505090508081519250925050915091565b8073ffffffffffffffffffffffffffffffffffffffff166108fc349081150290604051600060405180830381858888f1935050505015801561071d573d6000803e3d6000fd5b5050565b606060036000838152602001908152602001600020805480602002602001604051908101604052809291908181526020016000905b828210156107d3578382906000526020600020906005020160a060405190810160405290816000820154815260200160018201546000191660001916815260200160028201546000191660001916815260200160038201548152602001600482015460001916600019168152505081526020019060010190610756565b505050509050919050565b6107e66110d1565b60408051908101604052808360001916815260200160001515815250905080600260008581526020019081526020016000206000820151816000019060001916905560208201518160010160006101000a81548160ff021916908315150217905550905050505050565b60606000606060016000858152602001908152602001600020805480602002602001604051908101604052809291908181526020016000905b8282101561090e578382906000526020600020906005020160a0604051908101604052908160008201546000191660001916815260200160018201546000191660001916815260200160028201546000191660001916815260200160038201548152602001600482015460001916600019168152505081526020019060010190610889565b5050505090508081519250925050915091565b6109296110f0565b60008084815260200190815260200160002060008360001916600019168152602001908152602001600020608060405190810160405290816000820160009054906101000a900473ffffffffffffffffffffffffffffffffffffffff1673ffffffffffffffffffffffffffffffffffffffff1673ffffffffffffffffffffffffffffffffffffffff168152602001600182015460001916600019168152602001600282015481526020016003820154600019166000191681525050905092915050565b60606004805480602002602001604051908101604052809291908181526020016000905b82821015610a8d578382906000526020600020906005020160a060405190810160405290816000820154815260200160018201546000191660001916815260200160028201546000191660001916815260200160038201548152602001600482015460001916600019168152505081526020019060010190610a10565b50505050905090565b60016002600083815260200190815260200160002060010160006101000a81548160ff02191690831515021790555050565b610ad06110f0565b610ad86110f0565b610ae0611135565b600080600086815260200190815260200160002060008a60001916600019168152602001908152602001600020608060405190810160405290816000820160009054906101000a900473ffffffffffffffffffffffffffffffffffffffff1673ffffffffffffffffffffffffffffffffffffffff1673ffffffffffffffffffffffffffffffffffffffff168152602001600182015460001916600019168152602001600282015481526020016003820154600019166000191681525050935060008086815260200190815260200160002060008960001916600019168152602001908152602001600020608060405190810160405290816000820160009054906101000a900473ffffffffffffffffffffffffffffffffffffffff1673ffffffffffffffffffffffffffffffffffffffff1673ffffffffffffffffffffffffffffffffffffffff168152602001600182015460001916600019168152602001600282015481526020016003820154600019166000191681525050925060a0604051908101604052808a60001916815260200185606001516000191681526020018460600151600019168152602001888152602001876000191681525091506001600086815260200190815260200160002082908060018154018082558091505090600182039060005260206000209060050201600090919290919091506000820151816000019060001916905560208201518160010190600019169055604082015181600201906000191690556060820151816003015560808201518160040190600019169055505050826000015190508073ffffffffffffffffffffffffffffffffffffffff166108fc349081150290604051600060405180830381858888f19350505050158015610d77573d6000803e3d6000fd5b50505050505050505050565b610d8b6110f0565b610d936110f0565b610d9b611171565b600080600086815260200190815260200160002060008a60001916600019168152602001908152602001600020608060405190810160405290816000820160009054906101000a900473ffffffffffffffffffffffffffffffffffffffff1673ffffffffffffffffffffffffffffffffffffffff1673ffffffffffffffffffffffffffffffffffffffff168152602001600182015460001916600019168152602001600282015481526020016003820154600019166000191681525050935060008086815260200190815260200160002060008960001916600019168152602001908152602001600020608060405190810160405290816000820160009054906101000a900473ffffffffffffffffffffffffffffffffffffffff1673ffffffffffffffffffffffffffffffffffffffff1673ffffffffffffffffffffffffffffffffffffffff168152602001600182015460001916600019168152602001600282015481526020016003820154600019166000191681525050925060a0604051908101604052808a60001916815260200185606001516000191681526020018460600151600019168152602001888152602001876000191681525091506005600086815260200190815260200160002082908060018154018082558091505090600182039060005260206000209060050201600090919290919091506000820151816000019060001916905560208201518160010190600019169055604082015181600201906000191690556060820151816003015560808201518160040190600019169055505050826000015190508073ffffffffffffffffffffffffffffffffffffffff166108fc349081150290604051600060405180830381858888f19350505050158015611032573d6000803e3d6000fd5b50505050505050505050565b6110466110d1565b600260008381526020019081526020016000206040805190810160405290816000820154600019166000191681526020016001820160009054906101000a900460ff1615151515815250509050919050565b60a06040519081016040528060008152602001600080191681526020016000801916815260200160008152602001600080191681525090565b6040805190810160405280600080191681526020016000151581525090565b608060405190810160405280600073ffffffffffffffffffffffffffffffffffffffff1681526020016000801916815260200160008152602001600080191681525090565b60a06040519081016040528060008019168152602001600080191681526020016000801916815260200160008152602001600080191681525090565b60a06040519081016040528060008019168152602001600080191681526020016000801916815260200160008152602001600080191681525090565b60006111b98235611824565b905092915050565b60006111cd8235611844565b905092915050565b60006111e1823561184e565b905092915050565b6000602082840312156111fb57600080fd5b6000611209848285016111ad565b91505092915050565b600080600080600060a0868803121561122a57600080fd5b6000611238888289016111c1565b9550506020611249888289016111c1565b945050604061125a888289016111d5565b935050606061126b888289016111c1565b925050608061127c888289016111d5565b9150509295509295909350565b60006020828403121561129b57600080fd5b60006112a9848285016111d5565b91505092915050565b600080604083850312156112c557600080fd5b60006112d3858286016111d5565b92505060206112e4858286016111c1565b9150509250929050565b6000806000806080858703121561130457600080fd5b6000611312878288016111d5565b9450506020611323878288016111c1565b9350506040611334878288016111ad565b9250506060611345878288016111c1565b91505092959194509250565b6000806000806080858703121561136757600080fd5b6000611375878288016111d5565b9450506020611386878288016111c1565b9350506040611397878288016111d5565b92505060606113a8878288016111c1565b91505092959194509250565b6113bd816117e4565b82525050565b60006113ce8261179c565b8084526020840193506113e083611775565b60005b82811015611412576113f68683516114f2565b6113ff826117bd565b915060a0860195506001810190506113e3565b50849250505092915050565b6000611429826117a7565b80845260208401935061143b83611782565b60005b8281101561146d576114518683516115de565b61145a826117ca565b915060a08601955060018101905061143e565b50849250505092915050565b6000611484826117b2565b8084526020840193506114968361178f565b60005b828110156114c8576114ac868351611646565b6114b5826117d7565b915060a086019550600181019050611499565b50849250505092915050565b6114dd81611804565b82525050565b6114ec81611810565b82525050565b60a08201600082015161150860008501826116ae565b50602082015161151b60208501826114e3565b50604082015161152e60408501826114e3565b50606082015161154160608501826116ae565b50608082015161155460808501826114e3565b50505050565b60408201600082015161157060008501826114e3565b50602082015161158360208501826114d4565b50505050565b60808201600082015161159f60008501826113b4565b5060208201516115b260208501826114e3565b5060408201516115c560408501826116ae565b5060608201516115d860608501826114e3565b50505050565b60a0820160008201516115f460008501826114e3565b50602082015161160760208501826114e3565b50604082015161161a60408501826114e3565b50606082015161162d60608501826116ae565b50608082015161164060808501826114e3565b50505050565b60a08201600082015161165c60008501826114e3565b50602082015161166f60208501826114e3565b50604082015161168260408501826114e3565b50606082015161169560608501826116ae565b5060808201516116a860808501826114e3565b50505050565b6116b78161181a565b82525050565b600060208201905081810360008301526116d781846113c3565b905092915050565b600060408201905081810360008301526116f9818561141e565b905061170860208301846116ae565b9392505050565b600060408201905081810360008301526117298185611479565b905061173860208301846116ae565b9392505050565b6000604082019050611754600083018461155a565b92915050565b600060808201905061176f6000830184611589565b92915050565b6000602082019050919050565b6000602082019050919050565b6000602082019050919050565b600081519050919050565b600081519050919050565b600081519050919050565b6000602082019050919050565b6000602082019050919050565b6000602082019050919050565b600073ffffffffffffffffffffffffffffffffffffffff82169050919050565b60008115159050919050565b6000819050919050565b6000819050919050565b600073ffffffffffffffffffffffffffffffffffffffff82169050919050565b6000819050919050565b60008190509190505600a265627a7a723058202be6e7c6b61b14dedabaaf2c7c301ab7e81e282015b18879eacb715961d8f7106c6578706572696d656e74616cf50037",
  "source": "pragma solidity ^0.4.25;\r\npragma experimental ABIEncoderV2;\r\ncontract StudyGroup {\r\n\r\n    // 스터디원 구조체\r\n    struct studyMember {\r\n        address memberAddress; // 계좌번호\r\n        bytes32 person_id; // solidity는 string에 최적화되어 있지 않고, bytes32에 최적화\r\n        uint study_id;// 가입할 study_id\r\n        bytes32 person_name; // 사용자 이름\r\n    }\r\n\r\n    // 스터디 구조체\r\n    struct studyInfo { \r\n        bytes32 endDate;    //스터디 종료날짜\r\n        bool isEndDateDeal; //스터디 종료 거래 진행 여부\r\n    }\r\n\r\n   // 스터디 퀴즈내역 저장\r\n    struct studyQuizTransfer {\r\n        bytes32 senderId; // 지각한 사람의 person_id\r\n        bytes32 sendName; // 지각한 사람의 person_name\r\n        bytes32 receiverName; // 받는 사람의 person_name\r\n        uint coin; // 지각할 때 빠져나갈 코인\r\n        bytes32 date; // 지각한 날짜\r\n    }\r\n\r\n    // 스터디 종료내역 저장\r\n    struct studyEndTransfer {\r\n        uint studyId;// 종료된 study_id\r\n        bytes32 personId; // 반환 받아야 하는 person_id\r\n        bytes32 personName; // 반환 받아야 하는 person_name\r\n        uint receiveEther; // 반환 받아야 하는 ether값\r\n        bytes32 endDate; // 종료된 날짜\r\n    }\r\n    \r\n    // 지각에 따른 코인 차감\r\n    struct tardinessTransfer {\r\n        bytes32 senderId; // 지각한 사람의 person_id\r\n        bytes32 sendName; // 지각한 사람의 person_name\r\n        bytes32 receiverName; // 받는 사람의 person_name\r\n        uint coin; // 지각할 때 빠져나갈 코인\r\n        bytes32 date; // 지각한 날짜\r\n    }\r\n    // 스터디원 배열\r\n    // memberInfo 는 uint 타입인 스터디 id에서 bytes32 타입인 person_id로 값을 얻는데, \r\n    // 그 값이 studyMember에 매칭되는 회원 정보\r\n    // 스터디 가입, 생성시 회원 정보 저장.\r\n    mapping(uint => mapping(bytes32 => studyMember)) memberInfo;\r\n\r\n    // (key, value) = ( [스터디id][사용자id] -> 지각거래 내역)\r\n    // 해당 스터디의 특정 스터디원의 지각 거래 내역\r\n    mapping(uint => tardinessTransfer[]) getTardinessTransferList;\r\n    //mapping(uint => mapping(uint => LogOfTardinessTransfer)) LogOfTardinessTransfer_mapping;\r\n\r\n    // (key: 스터디 id) 스터디 생성시 스터디 정보 저장\r\n    mapping(uint => studyInfo) studyInfoList;\r\n\r\n    // (스터디별) 스터디 종료 트랜잭션 \r\n    mapping(uint => studyEndTransfer[]) studyEndTransferList;\r\n    // (모든 스터디) 스터디 종료 트랜잭션 \r\n    studyEndTransfer[] studyEndManageList;\r\n\r\n    // (key, value) = ( [스터디id][사용자id] -> 퀴즈거래 내역)\r\n    // 해당 스터디의 특정 스터디원의 퀴즈 거래 내역\r\n    mapping(uint => studyQuizTransfer[]) studyQuizTransferList;\r\n\r\n    // studyGroup.sol에 스터디 종료 여부, 종료 내역 저장\r\n    function setStudyEndTransfer(uint _studyId, bytes32 _endDate) public {\r\n        // 스터디 구조체 생성\r\n        studyInfo memory studyInfoItem = studyInfo(_endDate, false); \r\n        // 스터디 정보 list에 항목 추가\r\n        studyInfoList[_studyId] = studyInfoItem;\r\n    }\r\n\r\n    // 스터디 정보 반환\r\n    function getStudyEndTransfer(uint _studyId) view external returns(studyInfo) {\r\n        // 스터디 구조체 반환\r\n        return (studyInfoList[_studyId]);\r\n    }\r\n\r\n    // (전체)스터디 정보 반환\r\n    function getStudyEndTransferManageList() view external returns(studyEndTransfer[]) {\r\n        // 스터디 구조체 반환\r\n    \r\n        return (studyEndManageList);\r\n    }\r\n\r\n    // (인덱스)스터디 정보 반환\r\n    function getStudyEndTransferList(uint _study_id) view external returns(studyEndTransfer[]) {\r\n        // 스터디 구조체 반환\r\n        return (studyEndTransferList[_study_id]);\r\n    }\r\n\r\n    // 스터디 종료처리 - (스터디 구조체에 isEndDateDeal 항목 수정)\r\n    function renameStudyEndTransfer(uint _studyId) public {\r\n        studyInfoList[_studyId].isEndDateDeal = true;\r\n    }\r\n    \r\n    // study가 종료될 때 코인을 환급받는 메소드\r\n    function endTheStudy(uint _studyId, bytes32 _personId, uint _receiveEther,  bytes32 _endDate) external payable {\r\n\r\n        // 종료 거래 생성 및 리스트에 추가\r\n        bytes32 _personName = memberInfo[_studyId][_personId].person_name;\r\n        // 종료 거래 생성\r\n        studyEndTransfer memory studyEndTransferItem = studyEndTransfer(_studyId, _personId, _personName, _receiveEther, _endDate);\r\n        \r\n        // 리스트에 추가\r\n        studyEndTransferList[_studyId].push(studyEndTransferItem);\r\n        studyEndManageList.push(studyEndTransferItem);\r\n\r\n        // 사용자 계좌에서 관리자 계좌로 거래 진행\r\n        address managerAccount = 0x6A514E7125B87a7ca5Eb230abD9E02EEbb3D678E;\r\n        // sender는 js파일에서 지정됨.\r\n        // managerAccount는 receiver\r\n        managerAccount.transfer(msg.value);\r\n    }\r\n    \r\n    // 지각에 대한 코인 차감 거래 발생\r\n    function setTardinessTransfer(bytes32 _senderId, bytes32 _receiverId, uint _coin, bytes32 _date, uint _study_id) public payable {\r\n        studyMember memory senderInfo = memberInfo[_study_id][_senderId];\r\n        studyMember memory receiverInfo = memberInfo[_study_id][_receiverId];\r\n        // 메세지 저장할 객체 생성\r\n       tardinessTransfer memory transferItem = tardinessTransfer(_senderId,senderInfo.person_name, receiverInfo.person_name, _coin, _date); \r\n        \r\n        // 객체에 지각한 내용 저장 - 해당 스터디에 대한 지각 정보\r\n        getTardinessTransferList[_study_id].push(transferItem); \r\n        \r\n        // 실제 거래 부분\r\n        address receiverAddress = receiverInfo.memberAddress;\r\n        receiverAddress.transfer(msg.value);\r\n    }\r\n\r\n    // 지각에 대한 코인 차감 거래 발생 정보 얻기 \r\n    function getTardinessTransfer (uint _study_id) view external returns(tardinessTransfer[],uint) {\r\n    // 해당 스터디의 모든 지각 정보\r\n        tardinessTransfer[] memory transferList = getTardinessTransferList[_study_id]; // 메세지 객체 저장\r\n        return (transferList,transferList.length);\r\n    }\r\n\r\n    \r\n    // 다차원 mapping 읽음 -> 특정 스터디의 특정 회원의 회원정보를 읽음.\r\n    function getPersonInfoOfStudy(uint _study_id, bytes32 _person_id) view external returns(studyMember) {\r\n          return (memberInfo[_study_id][_person_id]);\r\n    }\r\n\r\n     // 다차원 mapping 저장 -> 특정 스터디의 특정 회원의 회원정보를 저장.\r\n    function setPersonInfoOfStudy(uint _study_id, bytes32 _person_id, address _memberAddress, bytes32 _person_name) public payable {\r\n        memberInfo[_study_id][_person_id] = studyMember(_memberAddress, _person_id, _study_id, _person_name);\r\n        _memberAddress.transfer(msg.value);\r\n    }\r\n\r\n    // 관리자 계좌에서 가입자에게 코인 충전\r\n    function chargeTheCoin(address _receiver) public payable {\r\n        // _receiver에게 msg.value에서 지정된 ether만큼 전송. \r\n        _receiver.transfer(msg.value);\r\n    }\r\n\r\n    // 퀴즈에 대한 코인 차감 거래 발생\r\n    function setStudyQuizTransfer(bytes32 _senderId, bytes32 _receiverId, uint _coin, bytes32 _date, uint _study_id) public payable {\r\n        studyMember memory senderInfo = memberInfo[_study_id][_senderId];\r\n        studyMember memory receiverInfo = memberInfo[_study_id][_receiverId];\r\n        // 메세지 저장할 객체 생성\r\n       studyQuizTransfer memory transferItem = studyQuizTransfer(_senderId,senderInfo.person_name, receiverInfo.person_name, _coin, _date); \r\n        \r\n        // 객체에 퀴즈한 내용 저장 - 해당 스터디에 대한 퀴즈 정보\r\n        studyQuizTransferList[_study_id].push(transferItem); \r\n        \r\n        // 실제 거래 부분\r\n        address receiverAddress = receiverInfo.memberAddress;\r\n        receiverAddress.transfer(msg.value);\r\n    }\r\n\r\n    // 퀴즈에 대한 코인 차감 거래 발생 정보 얻기 \r\n    function getStudyQuizTransfer (uint _study_id) view external returns(studyQuizTransfer[],uint) {\r\n    // 해당 스터디의 모든 퀴즈 정보\r\n        studyQuizTransfer[] memory transferList = studyQuizTransferList[_study_id]; // 메세지 객체 저장\r\n        return (transferList,transferList.length);\r\n    }\r\n\r\n}\r\n",
  "sourcePath": "C:\\Users\\skskj\\project\\git\\p6\\p0625_1\\app_v1\\contracts\\StudyGroup.sol",
  "compiler": {
    "name": "solc",
    "version": "0.4.25+commit.59dbf8f1.Emscripten.clang"
  },
  "schemaVersion": "2.0.2",
  "updatedAt": "2019-06-25T06:56:45.238Z"
}