{
  "contractName": "AboutStudyInfo",
  "abi": [
    {
      "constant": false,
      "inputs": [
        {
          "name": "_studyId",
          "type": "uint256"
        },
        {
          "name": "_endDate",
          "type": "bytes32"
        },
        {
          "name": "_study_cnt",
          "type": "uint256"
        }
      ],
      "name": "setStudyInfo",
      "outputs": [],
      "payable": false,
      "stateMutability": "nonpayable",
      "type": "function"
    },
    {
      "constant": true,
      "inputs": [
        {
          "name": "_studyId",
          "type": "uint256"
        }
      ],
      "name": "getStudyInfo",
      "outputs": [
        {
          "components": [
            {
              "name": "endDate",
              "type": "bytes32"
            },
            {
              "name": "study_cnt",
              "type": "uint256"
            }
          ],
          "name": "",
          "type": "tuple"
        }
      ],
      "payable": false,
      "stateMutability": "view",
      "type": "function"
    }
  ],
  "bytecode": "0x608060405234801561001057600080fd5b506102df806100206000396000f30060806040526004361061004c576000357c0100000000000000000000000000000000000000000000000000000000900463ffffffff168063a03752f714610051578063ba2229d41461008e575b600080fd5b34801561005d57600080fd5b506100786004803603610073919081019061019d565b6100b7565b6040516100859190610262565b60405180910390f35b34801561009a57600080fd5b506100b560048036036100b091908101906101c6565b6100ff565b005b6100bf610158565b6000808381526020019081526020016000206040805190810160405290816000820154600019166000191681526020016001820154815250509050919050565b610107610158565b60408051908101604052808460001916815260200183815250905080600080868152602001908152602001600020600082015181600001906000191690556020820151816001015590505050505050565b604080519081016040528060008019168152602001600081525090565b60006101818235610291565b905092915050565b6000610195823561029b565b905092915050565b6000602082840312156101af57600080fd5b60006101bd84828501610189565b91505092915050565b6000806000606084860312156101db57600080fd5b60006101e986828701610189565b93505060206101fa86828701610175565b925050604061020b86828701610189565b9150509250925092565b61021e8161027d565b82525050565b60408201600082015161023a6000850182610215565b50602082015161024d6020850182610253565b50505050565b61025c81610287565b82525050565b60006040820190506102776000830184610224565b92915050565b6000819050919050565b6000819050919050565b6000819050919050565b60008190509190505600a265627a7a723058202d59f0540754f92ea0ce647776f9a89bd2b2f7aad17ef1cfbda41a82a482c0026c6578706572696d656e74616cf50037",
  "source": "pragma solidity ^0.4.25;\r\npragma experimental ABIEncoderV2;\r\n\r\ncontract AboutStudyInfo{\r\n    // 스터디 그룹 생성시 스터디 정보 저장\r\n    struct aboutStudyInfo {\r\n        bytes32 endDate; \r\n        uint study_cnt; \r\n    }\r\n    mapping(uint => aboutStudyInfo) studyInfoList;\r\n\r\n    // Study Group의 종료 저장\r\n    function setStudyInfo(uint _studyId, bytes32 _endDate, uint _study_cnt) public {\r\n        aboutStudyInfo memory aboutStudyInfoItem\r\n             = aboutStudyInfo(_endDate, _study_cnt); \r\n        studyInfoList[_studyId] = aboutStudyInfoItem;\r\n    }\r\n\r\n    // Study Group 구조체 반환 \r\n    function getStudyInfo(uint _studyId) view external returns(aboutStudyInfo) {\r\n        return (studyInfoList[_studyId]);\r\n    }\r\n}\r\n",
  "sourcePath": "C:\\Users\\skskj\\project\\git\\p11~12 g_project\\p11\\p1119_2\\app_v2\\contracts\\AboutStudyInfo.sol",
  "compiler": {
    "name": "solc",
    "version": "0.4.25+commit.59dbf8f1.Emscripten.clang"
  },
  "schemaVersion": "2.0.2",
  "updatedAt": "2019-11-21T15:51:08.128Z"
}