{
  "contractName": "HelloWorld",
  "abi": [
    {
      "inputs": [],
      "payable": false,
      "stateMutability": "nonpayable",
      "type": "constructor"
    },
    {
      "constant": false,
      "inputs": [
        {
          "name": "_greeting",
          "type": "bytes32"
        }
      ],
      "name": "setGreeting",
      "outputs": [],
      "payable": false,
      "stateMutability": "nonpayable",
      "type": "function"
    },
    {
      "constant": false,
      "inputs": [],
      "name": "setGreeting2",
      "outputs": [],
      "payable": false,
      "stateMutability": "nonpayable",
      "type": "function"
    },
    {
      "constant": false,
      "inputs": [],
      "name": "setGreeting3",
      "outputs": [],
      "payable": false,
      "stateMutability": "nonpayable",
      "type": "function"
    },
    {
      "constant": true,
      "inputs": [],
      "name": "getGreeting",
      "outputs": [
        {
          "name": "",
          "type": "bytes32"
        }
      ],
      "payable": false,
      "stateMutability": "view",
      "type": "function"
    },
    {
      "constant": false,
      "inputs": [
        {
          "name": "receiverAddress",
          "type": "address"
        }
      ],
      "name": "setTransfer",
      "outputs": [],
      "payable": true,
      "stateMutability": "payable",
      "type": "function"
    }
  ],
  "bytecode": "0x608060405234801561001057600080fd5b507f4869210000000000000000000000000000000000000000000000000000000000600081600019169055506102218061004b6000396000f30060806040526004361061006d576000357c0100000000000000000000000000000000000000000000000000000000900463ffffffff16806350513b4f1461007257806367fc47a4146100a3578063ae2b611c146100ba578063ae8f9c9a146100f0578063fe50cc7214610107575b600080fd5b34801561007e57600080fd5b506100a1600480360381019080803560001916906020019092919050505061013a565b005b3480156100af57600080fd5b506100b8610148565b005b6100ee600480360381019080803573ffffffffffffffffffffffffffffffffffffffff169060200190929190505050610175565b005b3480156100fc57600080fd5b506101056101bf565b005b34801561011357600080fd5b5061011c6101ec565b60405180826000191660001916815260200191505060405180910390f35b806000816000191690555050565b7f776879330000000000000000000000000000000000000000000000000000000060008160001916905550565b8073ffffffffffffffffffffffffffffffffffffffff166108fc349081150290604051600060405180830381858888f193505050501580156101bb573d6000803e3d6000fd5b5050565b7f776879320000000000000000000000000000000000000000000000000000000060008160001916905550565b600080549050905600a165627a7a72305820aef039d6cfb4169d4f823a8bec8b9d0f7407dbf3954e3dfe606b3f9ee28d41e30029",
  "source": "pragma solidity ^0.4.22;\r\ncontract HelloWorld {\r\n    bytes32 greeting;\r\n    constructor() public{\r\n        greeting=\"Hi!\";\r\n    }\r\n    \r\n    function setGreeting(bytes32 _greeting) public {\r\n        greeting = _greeting;\r\n    }\r\n    \r\n    function setGreeting2() public {\r\n        greeting = \"why2\";\r\n    }\r\n    \r\n    function setGreeting3() public {\r\n        greeting = \"why3\";\r\n    }\r\n    \r\n    function getGreeting() public view returns (bytes32){\r\n        return greeting;\r\n    }\r\n\r\n    // 이더 송금 거래\r\n    function setTransfer(address receiverAddress) public payable {\r\n        receiverAddress.transfer(msg.value);\r\n    }\r\n\r\n\r\n}",
  "sourcePath": "C:\\Users\\skskj\\project\\gitLab\\p07\\p0819_j\\19_p577_a_study_management_platform_using_blockchain\\contracts\\HelloWorld.sol",
  "compiler": {
    "name": "solc",
    "version": "0.4.25+commit.59dbf8f1.Emscripten.clang"
  },
  "schemaVersion": "2.0.2",
  "updatedAt": "2019-08-20T07:19:10.789Z"
}