{
  "contractName": "MainAccountTransfer",
  "abi": [
    {
      "constant": false,
      "inputs": [
        {
          "name": "personAddress",
          "type": "address"
        },
        {
          "name": "destination",
          "type": "bytes32"
        },
        {
          "name": "startingPoint",
          "type": "bytes32"
        },
        {
          "name": "etherNum",
          "type": "uint256"
        },
        {
          "name": "date",
          "type": "bytes32"
        },
        {
          "name": "content",
          "type": "bytes32"
        },
        {
          "name": "receiverAddress",
          "type": "address"
        },
        {
          "name": "_idx_hash",
          "type": "bytes32"
        },
        {
          "name": "_time",
          "type": "bytes32"
        }
      ],
      "name": "setMainAccountTransfer",
      "outputs": [],
      "payable": true,
      "stateMutability": "payable",
      "type": "function"
    },
    {
      "constant": true,
      "inputs": [
        {
          "name": "personAddress",
          "type": "address"
        }
      ],
      "name": "getMainAccountTransfer",
      "outputs": [
        {
          "components": [
            {
              "name": "destination",
              "type": "bytes32"
            },
            {
              "name": "startingPoint",
              "type": "bytes32"
            },
            {
              "name": "date",
              "type": "bytes32"
            },
            {
              "name": "content",
              "type": "bytes32"
            },
            {
              "name": "etherNum",
              "type": "uint256"
            },
            {
              "name": "idx_hash",
              "type": "bytes32"
            },
            {
              "name": "time",
              "type": "bytes32"
            }
          ],
          "name": "",
          "type": "tuple[]"
        }
      ],
      "payable": false,
      "stateMutability": "view",
      "type": "function"
    }
  ],
  "bytecode": "0x608060405234801561001057600080fd5b50610689806100206000396000f30060806040526004361061004c576000357c0100000000000000000000000000000000000000000000000000000000900463ffffffff168063b67a977814610051578063e6f3d5ed1461008e575b600080fd5b34801561005d57600080fd5b50610078600480360361007391908101906103ca565b6100aa565b60405161008591906105c0565b60405180910390f35b6100a860048036036100a391908101906103f3565b6101be565b005b60606000808373ffffffffffffffffffffffffffffffffffffffff1673ffffffffffffffffffffffffffffffffffffffff168152602001908152602001600020805480602002602001604051908101604052809291908181526020016000905b828210156101b3578382906000526020600020906007020160e060405190810160405290816000820154600019166000191681526020016001820154600019166000191681526020016002820154600019166000191681526020016003820154600019166000191681526020016004820154815260200160058201546000191660001916815260200160068201546000191660001916815250508152602001906001019061010a565b505050509050919050565b6101c661033e565b8373ffffffffffffffffffffffffffffffffffffffff166108fc349081150290604051600060405180830381858888f1935050505015801561020c573d6000803e3d6000fd5b5060e0604051908101604052808a60001916815260200189600019168152602001876000191681526020018660001916815260200188815260200184600019168152602001836000191681525090506000808b73ffffffffffffffffffffffffffffffffffffffff1673ffffffffffffffffffffffffffffffffffffffff1681526020019081526020016000208190806001815401808255809150509060018203906000526020600020906007020160009091929091909150600082015181600001906000191690556020820151816001019060001916905560408201518160020190600019169055606082015181600301906000191690556080820151816004015560a0820151816005019060001916905560c0820151816006019060001916905550505050505050505050505050565b60e060405190810160405280600080191681526020016000801916815260200160008019168152602001600080191681526020016000815260200160008019168152602001600080191681525090565b600061039a823561061b565b905092915050565b60006103ae823561063b565b905092915050565b60006103c28235610645565b905092915050565b6000602082840312156103dc57600080fd5b60006103ea8482850161038e565b91505092915050565b60008060008060008060008060006101208a8c03121561041257600080fd5b60006104208c828d0161038e565b99505060206104318c828d016103a2565b98505060406104428c828d016103a2565b97505060606104538c828d016103b6565b96505060806104648c828d016103a2565b95505060a06104758c828d016103a2565b94505060c06104868c828d0161038e565b93505060e06104978c828d016103a2565b9250506101006104a98c828d016103a2565b9150509295985092959850929598565b60006104c4826105ef565b8084526020840193506104d6836105e2565b60005b82811015610508576104ec868351610523565b6104f5826105fa565b915060e0860195506001810190506104d9565b50849250505092915050565b61051d81610607565b82525050565b60e0820160008201516105396000850182610514565b50602082015161054c6020850182610514565b50604082015161055f6040850182610514565b5060608201516105726060850182610514565b50608082015161058560808501826105b1565b5060a082015161059860a0850182610514565b5060c08201516105ab60c0850182610514565b50505050565b6105ba81610611565b82525050565b600060208201905081810360008301526105da81846104b9565b905092915050565b6000602082019050919050565b600081519050919050565b6000602082019050919050565b6000819050919050565b6000819050919050565b600073ffffffffffffffffffffffffffffffffffffffff82169050919050565b6000819050919050565b60008190509190505600a265627a7a72305820d4ed972d6383ea32e3c3a3a42ea8d1ddb075e313d19ad391908d2cddd83917316c6578706572696d656e74616cf50037",
  "source": "pragma solidity ^0.4.25;\r\npragma experimental ABIEncoderV2;\r\n\r\ncontract MainAccountTransfer {\r\n    // 본 계좌 거래 내역 구조체\r\n    struct mainAccountTransfer {\r\n        bytes32 destination; \r\n        bytes32 startingPoint; \r\n        bytes32 date; \r\n        bytes32 content; \r\n        uint etherNum; \r\n        bytes32 idx_hash;\r\n        bytes32 time; \r\n    }\r\n    \r\n    // 본 계좌의 거래 내역 리스트 \r\n    mapping(address => mainAccountTransfer[]) mainAccountTransferList;\r\n    \r\n    // 본 계좌의 거래 내역을 저장\r\n    function setMainAccountTransfer (address personAddress, bytes32 destination,bytes32 startingPoint,\r\n    uint etherNum, bytes32 date, bytes32 content, address receiverAddress, bytes32 _idx_hash, bytes32 _time) public payable{\r\n        receiverAddress.transfer(msg.value);\r\n        mainAccountTransfer memory mainAccountTransferItem\r\n             = mainAccountTransfer(destination, startingPoint, date, content, etherNum, _idx_hash, _time); \r\n        mainAccountTransferList[personAddress].push(mainAccountTransferItem);\r\n    }\r\n\r\n    // 본 계좌 거래 내역 반환\r\n    function getMainAccountTransfer(address personAddress) view external returns(mainAccountTransfer[]) {\r\n        return (mainAccountTransferList[personAddress]);\r\n    }\r\n}\r\n",
  "sourcePath": "C:\\Users\\skskj\\project\\git\\p11~12 g_project\\p11\\p1119_2\\app_v2\\contracts\\MainAccountTransfer.sol",
  "compiler": {
    "name": "solc",
    "version": "0.4.25+commit.59dbf8f1.Emscripten.clang"
  },
  "schemaVersion": "2.0.2",
  "updatedAt": "2019-11-21T15:51:08.462Z"
}