{
  "contractName": "MainAccountTransfer",
  "abi": [
    {
      "constant": false,
      "inputs": [
        {
          "name": "personAddress",
          "type": "address"
        },
        {
          "name": "destination",
          "type": "bytes32"
        },
        {
          "name": "startingPoint",
          "type": "bytes32"
        },
        {
          "name": "etherNum",
          "type": "uint256"
        },
        {
          "name": "date",
          "type": "bytes32"
        },
        {
          "name": "content",
          "type": "bytes32"
        },
        {
          "name": "receiverAddress",
          "type": "address"
        },
        {
          "name": "_idx_hash",
          "type": "bytes32"
        }
      ],
      "name": "setMainAccountTransfer",
      "outputs": [],
      "payable": true,
      "stateMutability": "payable",
      "type": "function"
    },
    {
      "constant": true,
      "inputs": [
        {
          "name": "personAddress",
          "type": "address"
        }
      ],
      "name": "getMainAccountTransfer",
      "outputs": [
        {
          "components": [
            {
              "name": "destination",
              "type": "bytes32"
            },
            {
              "name": "startingPoint",
              "type": "bytes32"
            },
            {
              "name": "date",
              "type": "bytes32"
            },
            {
              "name": "content",
              "type": "bytes32"
            },
            {
              "name": "etherNum",
              "type": "uint256"
            },
            {
              "name": "idx_hash",
              "type": "bytes32"
            }
          ],
          "name": "",
          "type": "tuple[]"
        }
      ],
      "payable": false,
      "stateMutability": "view",
      "type": "function"
    }
  ],
  "bytecode": "0x608060405234801561001057600080fd5b5061062b806100206000396000f30060806040526004361061004c576000357c0100000000000000000000000000000000000000000000000000000000900463ffffffff16806359de7b6d14610051578063b67a97781461006d575b600080fd5b61006b600480360361006691908101906103bc565b6100aa565b005b34801561007957600080fd5b50610094600480360361008f9190810190610393565b61020f565b6040516100a19190610562565b60405180910390f35b6100b2610311565b8273ffffffffffffffffffffffffffffffffffffffff166108fc349081150290604051600060405180830381858888f193505050501580156100f8573d6000803e3d6000fd5b5060c06040519081016040528089600019168152602001886000191681526020018660001916815260200185600019168152602001878152602001836000191681525090506000808a73ffffffffffffffffffffffffffffffffffffffff1673ffffffffffffffffffffffffffffffffffffffff1681526020019081526020016000208190806001815401808255809150509060018203906000526020600020906006020160009091929091909150600082015181600001906000191690556020820151816001019060001916905560408201518160020190600019169055606082015181600301906000191690556080820151816004015560a08201518160050190600019169055505050505050505050505050565b60606000808373ffffffffffffffffffffffffffffffffffffffff1673ffffffffffffffffffffffffffffffffffffffff168152602001908152602001600020805480602002602001604051908101604052809291908181526020016000905b82821015610306578382906000526020600020906006020160c060405190810160405290816000820154600019166000191681526020016001820154600019166000191681526020016002820154600019166000191681526020016003820154600019166000191681526020016004820154815260200160058201546000191660001916815250508152602001906001019061026f565b505050509050919050565b60c0604051908101604052806000801916815260200160008019168152602001600080191681526020016000801916815260200160008152602001600080191681525090565b600061036382356105bd565b905092915050565b600061037782356105dd565b905092915050565b600061038b82356105e7565b905092915050565b6000602082840312156103a557600080fd5b60006103b384828501610357565b91505092915050565b600080600080600080600080610100898b0312156103d957600080fd5b60006103e78b828c01610357565b98505060206103f88b828c0161036b565b97505060406104098b828c0161036b565b965050606061041a8b828c0161037f565b955050608061042b8b828c0161036b565b94505060a061043c8b828c0161036b565b93505060c061044d8b828c01610357565b92505060e061045e8b828c0161036b565b9150509295985092959890939650565b600061047982610591565b80845260208401935061048b83610584565b60005b828110156104bd576104a18683516104d8565b6104aa8261059c565b915060c08601955060018101905061048e565b50849250505092915050565b6104d2816105a9565b82525050565b60c0820160008201516104ee60008501826104c9565b50602082015161050160208501826104c9565b50604082015161051460408501826104c9565b50606082015161052760608501826104c9565b50608082015161053a6080850182610553565b5060a082015161054d60a08501826104c9565b50505050565b61055c816105b3565b82525050565b6000602082019050818103600083015261057c818461046e565b905092915050565b6000602082019050919050565b600081519050919050565b6000602082019050919050565b6000819050919050565b6000819050919050565b600073ffffffffffffffffffffffffffffffffffffffff82169050919050565b6000819050919050565b60008190509190505600a265627a7a723058205bd1ab38b3e456204e63537a98788adae5a26f73e20c172fc14c7fbc38c78f646c6578706572696d656e74616cf50037",
  "source": "pragma solidity ^0.4.25;\r\npragma experimental ABIEncoderV2;\r\n\r\ncontract MainAccountTransfer {\r\n    // 본 계좌 거래 내역 구조체\r\n    struct mainAccountTransfer {\r\n        bytes32 destination; \r\n        bytes32 startingPoint; \r\n        bytes32 date; \r\n        bytes32 content; \r\n        uint etherNum; \r\n        bytes32 idx_hash;\r\n    }\r\n    \r\n    // 본 계좌의 거래 내역 리스트 \r\n    mapping(address => mainAccountTransfer[]) mainAccountTransferList;\r\n    \r\n    // 본 계좌의 거래 내역을 저장\r\n    function setMainAccountTransfer (address personAddress, bytes32 destination,bytes32 startingPoint,\r\n    uint etherNum, bytes32 date, bytes32 content, address receiverAddress, bytes32 _idx_hash) public payable{\r\n        receiverAddress.transfer(msg.value);\r\n        mainAccountTransfer memory mainAccountTransferItem\r\n             = mainAccountTransfer(destination, startingPoint, date, content, etherNum, _idx_hash); \r\n        mainAccountTransferList[personAddress].push(mainAccountTransferItem);\r\n    }\r\n\r\n    // 본 계좌 거래 내역 반환\r\n    function getMainAccountTransfer(address personAddress) view external returns(mainAccountTransfer[]) {\r\n        return (mainAccountTransferList[personAddress]);\r\n    }\r\n}\r\n",
  "sourcePath": "C:\\Users\\skskj\\project\\gitLab\\p11\\p1105_test\\19_p577_a_study_management_platform_using_blockchain\\contracts\\MainAccountTransfer.sol",
  "compiler": {
    "name": "solc",
    "version": "0.4.25+commit.59dbf8f1.Emscripten.clang"
  },
  "schemaVersion": "2.0.2",
  "updatedAt": "2019-11-18T18:47:33.392Z"
}