{
  "contractName": "QuizTransfer",
  "abi": [
    {
      "constant": false,
      "inputs": [
        {
          "name": "_senderId",
          "type": "bytes32"
        },
        {
          "name": "_senderName",
          "type": "bytes32"
        },
        {
          "name": "_receiverid",
          "type": "bytes32"
        },
        {
          "name": "_receiverName",
          "type": "bytes32"
        },
        {
          "name": "_coin",
          "type": "uint256"
        },
        {
          "name": "_date",
          "type": "bytes32"
        },
        {
          "name": "_study_id",
          "type": "uint256"
        },
        {
          "name": "_receiverAddress",
          "type": "address"
        },
        {
          "name": "_idx_hash",
          "type": "bytes32"
        },
        {
          "name": "_time",
          "type": "bytes32"
        }
      ],
      "name": "setStudyQuizTransfer",
      "outputs": [],
      "payable": true,
      "stateMutability": "payable",
      "type": "function"
    },
    {
      "constant": true,
      "inputs": [
        {
          "name": "_study_id",
          "type": "uint256"
        }
      ],
      "name": "getStudyQuizTransfer",
      "outputs": [
        {
          "components": [
            {
              "name": "senderId",
              "type": "bytes32"
            },
            {
              "name": "sendName",
              "type": "bytes32"
            },
            {
              "name": "receiverid",
              "type": "bytes32"
            },
            {
              "name": "receiverName",
              "type": "bytes32"
            },
            {
              "name": "coin",
              "type": "uint256"
            },
            {
              "name": "date",
              "type": "bytes32"
            },
            {
              "name": "idx_hash",
              "type": "bytes32"
            },
            {
              "name": "time",
              "type": "bytes32"
            }
          ],
          "name": "",
          "type": "tuple[]"
        },
        {
          "name": "",
          "type": "uint256"
        }
      ],
      "payable": false,
      "stateMutability": "view",
      "type": "function"
    }
  ],
  "bytecode": "0x608060405234801561001057600080fd5b506106b0806100206000396000f30060806040526004361061004c576000357c0100000000000000000000000000000000000000000000000000000000900463ffffffff168063151a992914610051578063f8fe03391461008f575b600080fd5b34801561005d57600080fd5b5061007860048036036100739190810190610494565b6100ab565b6040516100869291906105d9565b60405180910390f35b6100a960048036036100a491908101906103b9565b6101b2565b005b606060006060600080858152602001908152602001600020805480602002602001604051908101604052809291908181526020016000905b8282101561019f57838290600052602060002090600802016101006040519081016040529081600082015460001916600019168152602001600182015460001916600019168152602001600282015460001916600019168152602001600382015460001916600019168152602001600482015481526020016005820154600019166000191681526020016006820154600019166000191681526020016007820154600019166000191681525050815260200190600101906100e3565b5050505090508081519250925050915091565b6101ba610322565b610100604051908101604052808c6000191681526020018b6000191681526020018a600019168152602001896000191681526020018881526020018760001916815260200184600019168152602001836000191681525090506000808681526020019081526020016000208190806001815401808255809150509060018203906000526020600020906008020160009091929091909150600082015181600001906000191690556020820151816001019060001916905560408201518160020190600019169055606082015181600301906000191690556080820151816004015560a0820151816005019060001916905560c0820151816006019060001916905560e082015181600701906000191690555050508373ffffffffffffffffffffffffffffffffffffffff166108fc349081150290604051600060405180830381858888f19350505050158015610314573d6000803e3d6000fd5b505050505050505050505050565b6101006040519081016040528060008019168152602001600080191681526020016000801916815260200160008019168152602001600081526020016000801916815260200160008019168152602001600080191681525090565b60006103898235610642565b905092915050565b600061039d8235610662565b905092915050565b60006103b1823561066c565b905092915050565b6000806000806000806000806000806101408b8d0312156103d957600080fd5b60006103e78d828e01610391565b9a505060206103f88d828e01610391565b99505060406104098d828e01610391565b985050606061041a8d828e01610391565b975050608061042b8d828e016103a5565b96505060a061043c8d828e01610391565b95505060c061044d8d828e016103a5565b94505060e061045e8d828e0161037d565b9350506101006104708d828e01610391565b9250506101206104828d828e01610391565b9150509295989b9194979a5092959850565b6000602082840312156104a657600080fd5b60006104b4848285016103a5565b91505092915050565b60006104c882610616565b8084526020840193506104da83610609565b60005b8281101561050d576104f0868351610528565b6104f982610621565b9150610100860195506001810190506104dd565b50849250505092915050565b6105228161062e565b82525050565b6101008201600082015161053f6000850182610519565b5060208201516105526020850182610519565b5060408201516105656040850182610519565b5060608201516105786060850182610519565b50608082015161058b60808501826105ca565b5060a082015161059e60a0850182610519565b5060c08201516105b160c0850182610519565b5060e08201516105c460e0850182610519565b50505050565b6105d381610638565b82525050565b600060408201905081810360008301526105f381856104bd565b905061060260208301846105ca565b9392505050565b6000602082019050919050565b600081519050919050565b6000602082019050919050565b6000819050919050565b6000819050919050565b600073ffffffffffffffffffffffffffffffffffffffff82169050919050565b6000819050919050565b60008190509190505600a265627a7a72305820c145bab61570a5559a8284982922e63fd4507d6d14df7a613b9c346daa3fcc056c6578706572696d656e74616cf50037",
  "source": "pragma solidity ^0.4.25;\r\npragma experimental ABIEncoderV2;\r\n\r\ncontract QuizTransfer {\r\n    // Study Group 퀴즈 내역 구조체\r\n    struct studyQuizTransfer {\r\n        bytes32 senderId; \r\n        bytes32 sendName; \r\n        bytes32 receiverid;\r\n        bytes32 receiverName; \r\n        uint coin; \r\n        bytes32 date; \r\n        bytes32 idx_hash;\r\n        bytes32 time; \r\n    }\r\n\r\n    // 해당 스터디의 특정 스터디원의 퀴즈 거래 내역\r\n    mapping(uint => studyQuizTransfer[]) studyQuizTransferList;\r\n\r\n    // 퀴즈에 대한 코인 차감 거래 발생\r\n    function setStudyQuizTransfer(bytes32 _senderId,  bytes32 _senderName, bytes32 _receiverid, bytes32 _receiverName, uint _coin, bytes32 _date, uint _study_id, address _receiverAddress, bytes32 _idx_hash, bytes32 _time) public payable {\r\n        studyQuizTransfer memory transferItem \r\n        = studyQuizTransfer(_senderId,_senderName, _receiverid, _receiverName, _coin, _date, _idx_hash, _time); \r\n\r\n        studyQuizTransferList[_study_id].push(transferItem); \r\n        // 실제 ether 거래 발생\r\n        _receiverAddress.transfer(msg.value);\r\n    }\r\n\r\n    // 퀴즈에 대한 ether 차감 거래 발생 정보 얻기 \r\n    function getStudyQuizTransfer (uint _study_id) view external returns(studyQuizTransfer[],uint) {\r\n        studyQuizTransfer[] memory transferList = studyQuizTransferList[_study_id];\r\n        return (transferList,transferList.length);\r\n    }\r\n}\r\n",
  "sourcePath": "C:\\Users\\skskj\\project\\git\\p11~12 g_project\\p11\\p1119_2\\app_v2\\contracts\\QuizTransfer.sol",
  "compiler": {
    "name": "solc",
    "version": "0.4.25+commit.59dbf8f1.Emscripten.clang"
  },
  "schemaVersion": "2.0.2",
  "updatedAt": "2019-11-21T15:51:09.067Z"
}