{
  "contractName": "QuizTransfer",
  "abi": [
    {
      "constant": false,
      "inputs": [
        {
          "name": "_senderId",
          "type": "bytes32"
        },
        {
          "name": "_senderName",
          "type": "bytes32"
        },
        {
          "name": "_receiverid",
          "type": "bytes32"
        },
        {
          "name": "_receiverName",
          "type": "bytes32"
        },
        {
          "name": "_coin",
          "type": "uint256"
        },
        {
          "name": "_date",
          "type": "bytes32"
        },
        {
          "name": "_study_id",
          "type": "uint256"
        },
        {
          "name": "_receiverAddress",
          "type": "address"
        },
        {
          "name": "_idx_hash",
          "type": "bytes32"
        }
      ],
      "name": "setStudyQuizTransfer",
      "outputs": [],
      "payable": true,
      "stateMutability": "payable",
      "type": "function"
    },
    {
      "constant": true,
      "inputs": [
        {
          "name": "_study_id",
          "type": "uint256"
        }
      ],
      "name": "getStudyQuizTransfer",
      "outputs": [
        {
          "components": [
            {
              "name": "senderId",
              "type": "bytes32"
            },
            {
              "name": "sendName",
              "type": "bytes32"
            },
            {
              "name": "receiverid",
              "type": "bytes32"
            },
            {
              "name": "receiverName",
              "type": "bytes32"
            },
            {
              "name": "coin",
              "type": "uint256"
            },
            {
              "name": "date",
              "type": "bytes32"
            },
            {
              "name": "idx_hash",
              "type": "bytes32"
            }
          ],
          "name": "",
          "type": "tuple[]"
        },
        {
          "name": "",
          "type": "uint256"
        }
      ],
      "payable": false,
      "stateMutability": "view",
      "type": "function"
    }
  ],
  "bytecode": "0x608060405234801561001057600080fd5b5061064c806100206000396000f30060806040526004361061004c576000357c0100000000000000000000000000000000000000000000000000000000900463ffffffff168063151a9929146100515780634c491bfa1461008f575b600080fd5b34801561005d57600080fd5b5061007860048036036100739190810190610445565b6100ab565b604051610086929190610575565b60405180910390f35b6100a960048036036100a4919081019061037f565b61019f565b005b606060006060600080858152602001908152602001600020805480602002602001604051908101604052809291908181526020016000905b8282101561018c578382906000526020600020906007020160e06040519081016040529081600082015460001916600019168152602001600182015460001916600019168152602001600282015460001916600019168152602001600382015460001916600019168152602001600482015481526020016005820154600019166000191681526020016006820154600019166000191681525050815260200190600101906100e3565b5050505090508081519250925050915091565b6101a76102f3565b60e0604051908101604052808b6000191681526020018a600019168152602001896000191681526020018860001916815260200187815260200186600019168152602001836000191681525090506000808581526020019081526020016000208190806001815401808255809150509060018203906000526020600020906007020160009091929091909150600082015181600001906000191690556020820151816001019060001916905560408201518160020190600019169055606082015181600301906000191690556080820151816004015560a0820151816005019060001916905560c082015181600601906000191690555050508273ffffffffffffffffffffffffffffffffffffffff166108fc349081150290604051600060405180830381858888f193505050501580156102e6573d6000803e3d6000fd5b5050505050505050505050565b60e060405190810160405280600080191681526020016000801916815260200160008019168152602001600080191681526020016000815260200160008019168152602001600080191681525090565b600061034f82356105de565b905092915050565b600061036382356105fe565b905092915050565b60006103778235610608565b905092915050565b60008060008060008060008060006101208a8c03121561039e57600080fd5b60006103ac8c828d01610357565b99505060206103bd8c828d01610357565b98505060406103ce8c828d01610357565b97505060606103df8c828d01610357565b96505060806103f08c828d0161036b565b95505060a06104018c828d01610357565b94505060c06104128c828d0161036b565b93505060e06104238c828d01610343565b9250506101006104358c828d01610357565b9150509295985092959850929598565b60006020828403121561045757600080fd5b60006104658482850161036b565b91505092915050565b6000610479826105b2565b80845260208401935061048b836105a5565b60005b828110156104bd576104a18683516104d8565b6104aa826105bd565b915060e08601955060018101905061048e565b50849250505092915050565b6104d2816105ca565b82525050565b60e0820160008201516104ee60008501826104c9565b50602082015161050160208501826104c9565b50604082015161051460408501826104c9565b50606082015161052760608501826104c9565b50608082015161053a6080850182610566565b5060a082015161054d60a08501826104c9565b5060c082015161056060c08501826104c9565b50505050565b61056f816105d4565b82525050565b6000604082019050818103600083015261058f818561046e565b905061059e6020830184610566565b9392505050565b6000602082019050919050565b600081519050919050565b6000602082019050919050565b6000819050919050565b6000819050919050565b600073ffffffffffffffffffffffffffffffffffffffff82169050919050565b6000819050919050565b60008190509190505600a265627a7a72305820a736e56e41ebb5855ea4b3819849fb308e859b0724c1a4704bc454c3e7f69ecf6c6578706572696d656e74616cf50037",
  "source": "pragma solidity ^0.4.25;\r\npragma experimental ABIEncoderV2;\r\n\r\ncontract QuizTransfer {\r\n    // Study Group 퀴즈 내역 구조체\r\n    struct studyQuizTransfer {\r\n        bytes32 senderId; \r\n        bytes32 sendName; \r\n        bytes32 receiverid;\r\n        bytes32 receiverName; \r\n        uint coin; \r\n        bytes32 date; \r\n        bytes32 idx_hash;\r\n    }\r\n\r\n    // 해당 스터디의 특정 스터디원의 퀴즈 거래 내역\r\n    mapping(uint => studyQuizTransfer[]) studyQuizTransferList;\r\n\r\n    // 퀴즈에 대한 코인 차감 거래 발생\r\n    function setStudyQuizTransfer(bytes32 _senderId,  bytes32 _senderName, bytes32 _receiverid, bytes32 _receiverName, uint _coin, bytes32 _date, uint _study_id, address _receiverAddress, bytes32 _idx_hash) public payable {\r\n        studyQuizTransfer memory transferItem \r\n        = studyQuizTransfer(_senderId,_senderName, _receiverid, _receiverName, _coin, _date, _idx_hash); \r\n\r\n        studyQuizTransferList[_study_id].push(transferItem); \r\n        // 실제 ether 거래 발생\r\n        _receiverAddress.transfer(msg.value);\r\n    }\r\n\r\n    // 퀴즈에 대한 ether 차감 거래 발생 정보 얻기 \r\n    function getStudyQuizTransfer (uint _study_id) view external returns(studyQuizTransfer[],uint) {\r\n        studyQuizTransfer[] memory transferList = studyQuizTransferList[_study_id];\r\n        return (transferList,transferList.length);\r\n    }\r\n}\r\n",
  "sourcePath": "C:\\Users\\skskj\\project\\gitLab\\p11\\p1105_test\\19_p577_a_study_management_platform_using_blockchain\\contracts\\QuizTransfer.sol",
  "compiler": {
    "name": "solc",
    "version": "0.4.25+commit.59dbf8f1.Emscripten.clang"
  },
  "schemaVersion": "2.0.2",
  "updatedAt": "2019-11-18T18:47:34.002Z"
}