{
  "contractName": "StudyEndTransfer",
  "abi": [
    {
      "constant": true,
      "inputs": [
        {
          "name": "_study_id",
          "type": "uint256"
        }
      ],
      "name": "getStudyEndTransferList",
      "outputs": [
        {
          "components": [
            {
              "name": "personId",
              "type": "bytes32"
            },
            {
              "name": "personName",
              "type": "bytes32"
            },
            {
              "name": "receiveEther",
              "type": "uint256"
            },
            {
              "name": "endDate",
              "type": "bytes32"
            },
            {
              "name": "idx_hash",
              "type": "bytes32"
            }
          ],
          "name": "",
          "type": "tuple[]"
        }
      ],
      "payable": false,
      "stateMutability": "view",
      "type": "function"
    },
    {
      "constant": false,
      "inputs": [
        {
          "name": "_studyId",
          "type": "uint256"
        },
        {
          "name": "_personId",
          "type": "bytes32"
        },
        {
          "name": "_personName",
          "type": "bytes32"
        },
        {
          "name": "_receiveEther",
          "type": "uint256"
        },
        {
          "name": "_endDate",
          "type": "bytes32"
        },
        {
          "name": "_idx_hash",
          "type": "bytes32"
        }
      ],
      "name": "endTheStudy",
      "outputs": [],
      "payable": true,
      "stateMutability": "payable",
      "type": "function"
    }
  ],
  "bytecode": "0x608060405234801561001057600080fd5b506104e4806100206000396000f30060806040526004361061004c576000357c0100000000000000000000000000000000000000000000000000000000900463ffffffff168063370e76f914610051578063e81adccb1461008e575b600080fd5b34801561005d57600080fd5b50610078600480360361007391908101906102a8565b6100aa565b604051610085919061043b565b60405180910390f35b6100a860048036036100a391908101906102d1565b61016e565b005b6060600080838152602001908152602001600020805480602002602001604051908101604052809291908181526020016000905b82821015610163578382906000526020600020906005020160a06040519081016040529081600082015460001916600019168152602001600182015460001916600019168152602001600282015481526020016003820154600019166000191681526020016004820154600019166000191681525050815260200190600101906100de565b505050509050919050565b610176610244565b60a060405190810160405280876000191681526020018660001916815260200185815260200184600019168152602001836000191681525090506000808881526020019081526020016000208190806001815401808255809150509060018203906000526020600020906005020160009091929091909150600082015181600001906000191690556020820151816001019060001916905560408201518160020155606082015181600301906000191690556080820151816004019060001916905550505050505050505050565b60a06040519081016040528060008019168152602001600080191681526020016000815260200160008019168152602001600080191681525090565b600061028c8235610496565b905092915050565b60006102a082356104a0565b905092915050565b6000602082840312156102ba57600080fd5b60006102c884828501610294565b91505092915050565b60008060008060008060c087890312156102ea57600080fd5b60006102f889828a01610294565b965050602061030989828a01610280565b955050604061031a89828a01610280565b945050606061032b89828a01610294565b935050608061033c89828a01610280565b92505060a061034d89828a01610280565b9150509295509295509295565b60006103658261046a565b8084526020840193506103778361045d565b60005b828110156103a95761038d8683516103c4565b61039682610475565b915060a08601955060018101905061037a565b50849250505092915050565b6103be81610482565b82525050565b60a0820160008201516103da60008501826103b5565b5060208201516103ed60208501826103b5565b506040820151610400604085018261042c565b50606082015161041360608501826103b5565b50608082015161042660808501826103b5565b50505050565b6104358161048c565b82525050565b60006020820190508181036000830152610455818461035a565b905092915050565b6000602082019050919050565b600081519050919050565b6000602082019050919050565b6000819050919050565b6000819050919050565b6000819050919050565b60008190509190505600a265627a7a72305820fc2b7ca92aac1195b7142130fda29e76be00b2a99d6fe1c8445766d6ff9d21c46c6578706572696d656e74616cf50037",
  "source": "pragma solidity ^0.4.25;\r\npragma experimental ABIEncoderV2;\r\n\r\ncontract StudyEndTransfer {\r\n    // 하나의 Study Group 종료 내역 저장 구조체\r\n    struct studyEndTransfer {\r\n        bytes32 personId; \r\n        bytes32 personName; \r\n        uint receiveEther; \r\n        bytes32 endDate; \r\n        bytes32 idx_hash;\r\n    }\r\n    \r\n    // (Study Group 별) 하나의 Study Group 최종 종료 거래 내역 \r\n    mapping(uint => studyEndTransfer[]) studyEndTransferList;\r\n\r\n    // Study Group의 정보 반환\r\n    function getStudyEndTransferList(uint _study_id) view external returns(studyEndTransfer[]) {\r\n        return (studyEndTransferList[_study_id]);\r\n    }\r\n    \r\n    // Study Group 최종 종료 거래 생성\r\n    function endTheStudy(uint _studyId, bytes32 _personId, bytes32 _personName, uint _receiveEther,  bytes32 _endDate, bytes32 _idx_hash) external payable {\r\n        studyEndTransfer memory studyEndTransferItem = studyEndTransfer (_personId, _personName, _receiveEther, _endDate, _idx_hash);\r\n        studyEndTransferList[_studyId].push(studyEndTransferItem);\r\n    }\r\n}\r\n",
  "sourcePath": "C:\\Users\\skskj\\project\\gitLab\\p11\\p1105_test\\19_p577_a_study_management_platform_using_blockchain\\contracts\\StudyEndTransfer.sol",
  "compiler": {
    "name": "solc",
    "version": "0.4.25+commit.59dbf8f1.Emscripten.clang"
  },
  "schemaVersion": "2.0.2",
  "updatedAt": "2019-11-18T18:47:34.269Z"
}