{
  "contractName": "StudyGroup",
  "abi": [
    {
      "constant": false,
      "inputs": [
        {
          "name": "_studyId",
          "type": "uint256"
        },
        {
          "name": "_endDate",
          "type": "bytes32"
        }
      ],
      "name": "setStudyEndTransfer",
      "outputs": [],
      "payable": false,
      "stateMutability": "nonpayable",
      "type": "function"
    },
    {
      "constant": true,
      "inputs": [
        {
          "name": "_studyId",
          "type": "uint256"
        }
      ],
      "name": "getStudyEndTransfer",
      "outputs": [
        {
          "components": [
            {
              "name": "endDate",
              "type": "bytes32"
            },
            {
              "name": "isEndDateDeal",
              "type": "bool"
            }
          ],
          "name": "",
          "type": "tuple"
        }
      ],
      "payable": false,
      "stateMutability": "view",
      "type": "function"
    },
    {
      "constant": true,
      "inputs": [],
      "name": "getStudyEndTransferManageList",
      "outputs": [
        {
          "components": [
            {
              "name": "studyId",
              "type": "uint256"
            },
            {
              "name": "personId",
              "type": "bytes32"
            },
            {
              "name": "personName",
              "type": "bytes32"
            },
            {
              "name": "receiveEther",
              "type": "uint256"
            },
            {
              "name": "endDate",
              "type": "bytes32"
            }
          ],
          "name": "",
          "type": "tuple[]"
        }
      ],
      "payable": false,
      "stateMutability": "view",
      "type": "function"
    },
    {
      "constant": true,
      "inputs": [
        {
          "name": "_study_id",
          "type": "uint256"
        }
      ],
      "name": "getStudyEndTransferList",
      "outputs": [
        {
          "components": [
            {
              "name": "studyId",
              "type": "uint256"
            },
            {
              "name": "personId",
              "type": "bytes32"
            },
            {
              "name": "personName",
              "type": "bytes32"
            },
            {
              "name": "receiveEther",
              "type": "uint256"
            },
            {
              "name": "endDate",
              "type": "bytes32"
            }
          ],
          "name": "",
          "type": "tuple[]"
        }
      ],
      "payable": false,
      "stateMutability": "view",
      "type": "function"
    },
    {
      "constant": false,
      "inputs": [
        {
          "name": "_studyId",
          "type": "uint256"
        }
      ],
      "name": "renameStudyEndTransfer",
      "outputs": [],
      "payable": false,
      "stateMutability": "nonpayable",
      "type": "function"
    },
    {
      "constant": false,
      "inputs": [
        {
          "name": "_studyId",
          "type": "uint256"
        },
        {
          "name": "_personId",
          "type": "bytes32"
        },
        {
          "name": "_receiveEther",
          "type": "uint256"
        },
        {
          "name": "_endDate",
          "type": "bytes32"
        }
      ],
      "name": "endTheStudy",
      "outputs": [],
      "payable": true,
      "stateMutability": "payable",
      "type": "function"
    },
    {
      "constant": false,
      "inputs": [
        {
          "name": "_senderId",
          "type": "bytes32"
        },
        {
          "name": "_receiverId",
          "type": "bytes32"
        },
        {
          "name": "_coin",
          "type": "uint256"
        },
        {
          "name": "_date",
          "type": "bytes32"
        },
        {
          "name": "_study_id",
          "type": "uint256"
        }
      ],
      "name": "setTardinessTransfer",
      "outputs": [],
      "payable": true,
      "stateMutability": "payable",
      "type": "function"
    },
    {
      "constant": true,
      "inputs": [
        {
          "name": "_study_id",
          "type": "uint256"
        }
      ],
      "name": "getTardinessTransfer",
      "outputs": [
        {
          "components": [
            {
              "name": "senderId",
              "type": "bytes32"
            },
            {
              "name": "sendName",
              "type": "bytes32"
            },
            {
              "name": "receiverName",
              "type": "bytes32"
            },
            {
              "name": "coin",
              "type": "uint256"
            },
            {
              "name": "date",
              "type": "bytes32"
            }
          ],
          "name": "",
          "type": "tuple[]"
        },
        {
          "name": "",
          "type": "uint256"
        }
      ],
      "payable": false,
      "stateMutability": "view",
      "type": "function"
    },
    {
      "constant": true,
      "inputs": [
        {
          "name": "_study_id",
          "type": "uint256"
        },
        {
          "name": "_person_id",
          "type": "bytes32"
        }
      ],
      "name": "getPersonInfoOfStudy",
      "outputs": [
        {
          "components": [
            {
              "name": "memberAddress",
              "type": "address"
            },
            {
              "name": "person_id",
              "type": "bytes32"
            },
            {
              "name": "study_id",
              "type": "uint256"
            },
            {
              "name": "person_name",
              "type": "bytes32"
            }
          ],
          "name": "",
          "type": "tuple"
        }
      ],
      "payable": false,
      "stateMutability": "view",
      "type": "function"
    },
    {
      "constant": false,
      "inputs": [
        {
          "name": "_study_id",
          "type": "uint256"
        },
        {
          "name": "_person_id",
          "type": "bytes32"
        },
        {
          "name": "_memberAddress",
          "type": "address"
        },
        {
          "name": "_person_name",
          "type": "bytes32"
        }
      ],
      "name": "setPersonInfoOfStudy",
      "outputs": [],
      "payable": true,
      "stateMutability": "payable",
      "type": "function"
    },
    {
      "constant": false,
      "inputs": [
        {
          "name": "_receiver",
          "type": "address"
        }
      ],
      "name": "chargeTheCoin",
      "outputs": [],
      "payable": true,
      "stateMutability": "payable",
      "type": "function"
    },
    {
      "constant": false,
      "inputs": [
        {
          "name": "_senderId",
          "type": "bytes32"
        },
        {
          "name": "_receiverId",
          "type": "bytes32"
        },
        {
          "name": "_coin",
          "type": "uint256"
        },
        {
          "name": "_date",
          "type": "bytes32"
        },
        {
          "name": "_study_id",
          "type": "uint256"
        }
      ],
      "name": "setStudyQuizTransfer",
      "outputs": [],
      "payable": true,
      "stateMutability": "payable",
      "type": "function"
    },
    {
      "constant": true,
      "inputs": [
        {
          "name": "_study_id",
          "type": "uint256"
        }
      ],
      "name": "getStudyQuizTransfer",
      "outputs": [
        {
          "components": [
            {
              "name": "senderId",
              "type": "bytes32"
            },
            {
              "name": "sendName",
              "type": "bytes32"
            },
            {
              "name": "receiverName",
              "type": "bytes32"
            },
            {
              "name": "coin",
              "type": "uint256"
            },
            {
              "name": "date",
              "type": "bytes32"
            }
          ],
          "name": "",
          "type": "tuple[]"
        },
        {
          "name": "",
          "type": "uint256"
        }
      ],
      "payable": false,
      "stateMutability": "view",
      "type": "function"
    },
    {
      "constant": false,
      "inputs": [
        {
          "name": "personId",
          "type": "bytes32"
        },
        {
          "name": "destination",
          "type": "bytes32"
        },
        {
          "name": "startingPoint",
          "type": "bytes32"
        },
        {
          "name": "etherNum",
          "type": "uint256"
        },
        {
          "name": "date",
          "type": "bytes32"
        },
        {
          "name": "content",
          "type": "bytes32"
        }
      ],
      "name": "setMainAccountTransfer",
      "outputs": [],
      "payable": false,
      "stateMutability": "nonpayable",
      "type": "function"
    },
    {
      "constant": true,
      "inputs": [
        {
          "name": "personId",
          "type": "bytes32"
        }
      ],
      "name": "getMainAccountTransfer",
      "outputs": [
        {
          "components": [
            {
              "name": "destination",
              "type": "bytes32"
            },
            {
              "name": "startingPoint",
              "type": "bytes32"
            },
            {
              "name": "date",
              "type": "bytes32"
            },
            {
              "name": "content",
              "type": "bytes32"
            },
            {
              "name": "etherNum",
              "type": "uint256"
            }
          ],
          "name": "",
          "type": "tuple[]"
        }
      ],
      "payable": false,
      "stateMutability": "view",
      "type": "function"
    },
    {
      "constant": false,
      "inputs": [
        {
          "name": "receiverAddress",
          "type": "address"
        }
      ],
      "name": "etherTransfer",
      "outputs": [],
      "payable": true,
      "stateMutability": "payable",
      "type": "function"
    }
  ],
  "bytecode": "0x608060405234801561001057600080fd5b50611d23806100206000396000f3006080604052600436106100e5576000357c0100000000000000000000000000000000000000000000000000000000900463ffffffff168062d872ea146100ea5780630371841914610106578063151a992914610122578063156e61a514610160578063222d02061461017c578063370e76f91461019857806357eb6e70146101d55780636e089eaf146101fe57806370a889471461023c578063b26e419914610279578063ca0c981b146102b6578063d8284e1f146102e1578063db63e4361461030a578063e69adac914610326578063e9cbb8d714610342578063ea31f87d1461036b575b600080fd5b61010460048036036100ff91908101906116d8565b6103a8565b005b610120600480360361011b9190810190611675565b61057d565b005b34801561012e57600080fd5b5061014960048036036101449190810190611610565b6106a9565b604051610157929190611b4b565b60405180910390f35b61017a600480360361017591908101906114be565b61077a565b005b610196600480360361019191908101906114be565b6107c4565b005b3480156101a457600080fd5b506101bf60048036036101ba9190810190611610565b61080e565b6040516101cc9190611b29565b60405180910390f35b3480156101e157600080fd5b506101fc60048036036101f79190810190611639565b6108cb565b005b34801561020a57600080fd5b5061022560048036036102209190810190611610565b61093d565b604051610233929190611b7b565b60405180910390f35b34801561024857600080fd5b50610263600480360361025e9190810190611639565b610a0e565b6040516102709190611bc6565b60405180910390f35b34801561028557600080fd5b506102a0600480360361029b91908101906114e7565b610ad9565b6040516102ad9190611b07565b60405180910390f35b3480156102c257600080fd5b506102cb610ba6565b6040516102d89190611b29565b60405180910390f35b3480156102ed57600080fd5b5061030860048036036103039190810190611610565b610c50565b005b610324600480360361031f9190810190611599565b610c82565b005b610340600480360361033b9190810190611599565b610f3d565b005b34801561034e57600080fd5b5061036960048036036103649190810190611510565b6111f8565b005b34801561037757600080fd5b50610392600480360361038d9190810190611610565b6112d7565b60405161039f9190611bab565b60405180910390f35b60006103b2611331565b60008060008881526020019081526020016000206000876000191660001916815260200190815260200160002060030154925060a0604051908101604052808881526020018760001916815260200184600019168152602001868152602001856000191681525091506003600088815260200190815260200160002082908060018154018082558091505090600182039060005260206000209060050201600090919290919091506000820151816000015560208201518160010190600019169055604082015181600201906000191690556060820151816003015560808201518160040190600019169055505050600482908060018154018082558091505090600182039060005260206000209060050201600090919290919091506000820151816000015560208201518160010190600019169055604082015181600201906000191690556060820151816003015560808201518160040190600019169055505050736a514e7125b87a7ca5eb230abd9e02eebb3d678e90508073ffffffffffffffffffffffffffffffffffffffff166108fc349081150290604051600060405180830381858888f19350505050158015610573573d6000803e3d6000fd5b5050505050505050565b6080604051908101604052808373ffffffffffffffffffffffffffffffffffffffff1681526020018460001916815260200185815260200182600019168152506000808681526020019081526020016000206000856000191660001916815260200190815260200160002060008201518160000160006101000a81548173ffffffffffffffffffffffffffffffffffffffff021916908373ffffffffffffffffffffffffffffffffffffffff1602179055506020820151816001019060001916905560408201518160020155606082015181600301906000191690559050508173ffffffffffffffffffffffffffffffffffffffff166108fc349081150290604051600060405180830381858888f193505050501580156106a2573d6000803e3d6000fd5b5050505050565b60606000606060056000858152602001908152602001600020805480602002602001604051908101604052809291908181526020016000905b82821015610767578382906000526020600020906005020160a06040519081016040529081600082015460001916600019168152602001600182015460001916600019168152602001600282015460001916600019168152602001600382015481526020016004820154600019166000191681525050815260200190600101906106e2565b5050505090508081519250925050915091565b8073ffffffffffffffffffffffffffffffffffffffff166108fc349081150290604051600060405180830381858888f193505050501580156107c0573d6000803e3d6000fd5b5050565b8073ffffffffffffffffffffffffffffffffffffffff166108fc349081150290604051600060405180830381858888f1935050505015801561080a573d6000803e3d6000fd5b5050565b606060036000838152602001908152602001600020805480602002602001604051908101604052809291908181526020016000905b828210156108c0578382906000526020600020906005020160a060405190810160405290816000820154815260200160018201546000191660001916815260200160028201546000191660001916815260200160038201548152602001600482015460001916600019168152505081526020019060010190610843565b505050509050919050565b6108d361136a565b60408051908101604052808360001916815260200160001515815250905080600260008581526020019081526020016000206000820151816000019060001916905560208201518160010160006101000a81548160ff021916908315150217905550905050505050565b60606000606060016000858152602001908152602001600020805480602002602001604051908101604052809291908181526020016000905b828210156109fb578382906000526020600020906005020160a0604051908101604052908160008201546000191660001916815260200160018201546000191660001916815260200160028201546000191660001916815260200160038201548152602001600482015460001916600019168152505081526020019060010190610976565b5050505090508081519250925050915091565b610a16611389565b60008084815260200190815260200160002060008360001916600019168152602001908152602001600020608060405190810160405290816000820160009054906101000a900473ffffffffffffffffffffffffffffffffffffffff1673ffffffffffffffffffffffffffffffffffffffff1673ffffffffffffffffffffffffffffffffffffffff168152602001600182015460001916600019168152602001600282015481526020016003820154600019166000191681525050905092915050565b6060600660008360001916600019168152602001908152602001600020805480602002602001604051908101604052809291908181526020016000905b82821015610b9b578382906000526020600020906005020160a0604051908101604052908160008201546000191660001916815260200160018201546000191660001916815260200160028201546000191660001916815260200160038201546000191660001916815260200160048201548152505081526020019060010190610b16565b505050509050919050565b60606004805480602002602001604051908101604052809291908181526020016000905b82821015610c47578382906000526020600020906005020160a060405190810160405290816000820154815260200160018201546000191660001916815260200160028201546000191660001916815260200160038201548152602001600482015460001916600019168152505081526020019060010190610bca565b50505050905090565b60016002600083815260200190815260200160002060010160006101000a81548160ff02191690831515021790555050565b610c8a611389565b610c92611389565b610c9a6113ce565b600080600086815260200190815260200160002060008a60001916600019168152602001908152602001600020608060405190810160405290816000820160009054906101000a900473ffffffffffffffffffffffffffffffffffffffff1673ffffffffffffffffffffffffffffffffffffffff1673ffffffffffffffffffffffffffffffffffffffff168152602001600182015460001916600019168152602001600282015481526020016003820154600019166000191681525050935060008086815260200190815260200160002060008960001916600019168152602001908152602001600020608060405190810160405290816000820160009054906101000a900473ffffffffffffffffffffffffffffffffffffffff1673ffffffffffffffffffffffffffffffffffffffff1673ffffffffffffffffffffffffffffffffffffffff168152602001600182015460001916600019168152602001600282015481526020016003820154600019166000191681525050925060a0604051908101604052808a60001916815260200185606001516000191681526020018460600151600019168152602001888152602001876000191681525091506001600086815260200190815260200160002082908060018154018082558091505090600182039060005260206000209060050201600090919290919091506000820151816000019060001916905560208201518160010190600019169055604082015181600201906000191690556060820151816003015560808201518160040190600019169055505050826000015190508073ffffffffffffffffffffffffffffffffffffffff166108fc349081150290604051600060405180830381858888f19350505050158015610f31573d6000803e3d6000fd5b50505050505050505050565b610f45611389565b610f4d611389565b610f5561140a565b600080600086815260200190815260200160002060008a60001916600019168152602001908152602001600020608060405190810160405290816000820160009054906101000a900473ffffffffffffffffffffffffffffffffffffffff1673ffffffffffffffffffffffffffffffffffffffff1673ffffffffffffffffffffffffffffffffffffffff168152602001600182015460001916600019168152602001600282015481526020016003820154600019166000191681525050935060008086815260200190815260200160002060008960001916600019168152602001908152602001600020608060405190810160405290816000820160009054906101000a900473ffffffffffffffffffffffffffffffffffffffff1673ffffffffffffffffffffffffffffffffffffffff1673ffffffffffffffffffffffffffffffffffffffff168152602001600182015460001916600019168152602001600282015481526020016003820154600019166000191681525050925060a0604051908101604052808a60001916815260200185606001516000191681526020018460600151600019168152602001888152602001876000191681525091506005600086815260200190815260200160002082908060018154018082558091505090600182039060005260206000209060050201600090919290919091506000820151816000019060001916905560208201518160010190600019169055604082015181600201906000191690556060820151816003015560808201518160040190600019169055505050826000015190508073ffffffffffffffffffffffffffffffffffffffff166108fc349081150290604051600060405180830381858888f193505050501580156111ec573d6000803e3d6000fd5b50505050505050505050565b611200611446565b60a060405190810160405280876000191681526020018660001916815260200184600019168152602001836000191681526020018581525090506006600088600019166000191681526020019081526020016000208190806001815401808255809150509060018203906000526020600020906005020160009091929091909150600082015181600001906000191690556020820151816001019060001916905560408201518160020190600019169055606082015181600301906000191690556080820151816004015550505050505050505050565b6112df61136a565b600260008381526020019081526020016000206040805190810160405290816000820154600019166000191681526020016001820160009054906101000a900460ff1615151515815250509050919050565b60a06040519081016040528060008152602001600080191681526020016000801916815260200160008152602001600080191681525090565b6040805190810160405280600080191681526020016000151581525090565b608060405190810160405280600073ffffffffffffffffffffffffffffffffffffffff1681526020016000801916815260200160008152602001600080191681525090565b60a06040519081016040528060008019168152602001600080191681526020016000801916815260200160008152602001600080191681525090565b60a06040519081016040528060008019168152602001600080191681526020016000801916815260200160008152602001600080191681525090565b60a06040519081016040528060008019168152602001600080191681526020016000801916815260200160008019168152602001600081525090565b600061148e8235611cb5565b905092915050565b60006114a28235611cd5565b905092915050565b60006114b68235611cdf565b905092915050565b6000602082840312156114d057600080fd5b60006114de84828501611482565b91505092915050565b6000602082840312156114f957600080fd5b600061150784828501611496565b91505092915050565b60008060008060008060c0878903121561152957600080fd5b600061153789828a01611496565b965050602061154889828a01611496565b955050604061155989828a01611496565b945050606061156a89828a016114aa565b935050608061157b89828a01611496565b92505060a061158c89828a01611496565b9150509295509295509295565b600080600080600060a086880312156115b157600080fd5b60006115bf88828901611496565b95505060206115d088828901611496565b94505060406115e1888289016114aa565b93505060606115f288828901611496565b9250506080611603888289016114aa565b9150509295509295909350565b60006020828403121561162257600080fd5b6000611630848285016114aa565b91505092915050565b6000806040838503121561164c57600080fd5b600061165a858286016114aa565b925050602061166b85828601611496565b9150509250929050565b6000806000806080858703121561168b57600080fd5b6000611699878288016114aa565b94505060206116aa87828801611496565b93505060406116bb87828801611482565b92505060606116cc87828801611496565b91505092959194509250565b600080600080608085870312156116ee57600080fd5b60006116fc878288016114aa565b945050602061170d87828801611496565b935050604061171e878288016114aa565b925050606061172f87828801611496565b91505092959194509250565b61174481611c75565b82525050565b600061175582611c15565b80845260208401935061176783611be1565b60005b828110156117995761177d8683516118d4565b61178682611c41565b915060a08601955060018101905061176a565b50849250505092915050565b60006117b082611c20565b8084526020840193506117c283611bee565b60005b828110156117f4576117d886835161193c565b6117e182611c4e565b915060a0860195506001810190506117c5565b50849250505092915050565b600061180b82611c2b565b80845260208401935061181d83611bfb565b60005b8281101561184f57611833868351611a28565b61183c82611c5b565b915060a086019550600181019050611820565b50849250505092915050565b600061186682611c36565b80845260208401935061187883611c08565b60005b828110156118aa5761188e868351611a90565b61189782611c68565b915060a08601955060018101905061187b565b50849250505092915050565b6118bf81611c95565b82525050565b6118ce81611ca1565b82525050565b60a0820160008201516118ea60008501826118c5565b5060208201516118fd60208501826118c5565b50604082015161191060408501826118c5565b50606082015161192360608501826118c5565b5060808201516119366080850182611af8565b50505050565b60a0820160008201516119526000850182611af8565b50602082015161196560208501826118c5565b50604082015161197860408501826118c5565b50606082015161198b6060850182611af8565b50608082015161199e60808501826118c5565b50505050565b6040820160008201516119ba60008501826118c5565b5060208201516119cd60208501826118b6565b50505050565b6080820160008201516119e9600085018261173b565b5060208201516119fc60208501826118c5565b506040820151611a0f6040850182611af8565b506060820151611a2260608501826118c5565b50505050565b60a082016000820151611a3e60008501826118c5565b506020820151611a5160208501826118c5565b506040820151611a6460408501826118c5565b506060820151611a776060850182611af8565b506080820151611a8a60808501826118c5565b50505050565b60a082016000820151611aa660008501826118c5565b506020820151611ab960208501826118c5565b506040820151611acc60408501826118c5565b506060820151611adf6060850182611af8565b506080820151611af260808501826118c5565b50505050565b611b0181611cab565b82525050565b60006020820190508181036000830152611b21818461174a565b905092915050565b60006020820190508181036000830152611b4381846117a5565b905092915050565b60006040820190508181036000830152611b658185611800565b9050611b746020830184611af8565b9392505050565b60006040820190508181036000830152611b95818561185b565b9050611ba46020830184611af8565b9392505050565b6000604082019050611bc060008301846119a4565b92915050565b6000608082019050611bdb60008301846119d3565b92915050565b6000602082019050919050565b6000602082019050919050565b6000602082019050919050565b6000602082019050919050565b600081519050919050565b600081519050919050565b600081519050919050565b600081519050919050565b6000602082019050919050565b6000602082019050919050565b6000602082019050919050565b6000602082019050919050565b600073ffffffffffffffffffffffffffffffffffffffff82169050919050565b60008115159050919050565b6000819050919050565b6000819050919050565b600073ffffffffffffffffffffffffffffffffffffffff82169050919050565b6000819050919050565b60008190509190505600a265627a7a723058206e56bda97b5827f5d39f5bc2f150c97dbabffffb920c339ecdd12bb0bdb711006c6578706572696d656e74616cf50037",
  "source": "pragma solidity ^0.4.25;\r\npragma experimental ABIEncoderV2;\r\ncontract StudyGroup {\r\n\r\n    //  \r\n    struct studyMember {\r\n        address memberAddress; // \r\n        bytes32 person_id; // solidity string   , bytes32 \r\n        uint study_id;//  study_id\r\n        bytes32 person_name; //  \r\n    }\r\n\r\n    //  \r\n    struct studyInfo { \r\n        bytes32 endDate;    // \r\n        bool isEndDateDeal; //    \r\n    }\r\n\r\n   //   \r\n    struct studyQuizTransfer {\r\n        bytes32 senderId; //   person_id\r\n        bytes32 sendName; //   person_name\r\n        bytes32 receiverName; //   person_name\r\n        uint coin; //    \r\n        bytes32 date; //  \r\n    }\r\n\r\n    //   \r\n    struct studyEndTransfer {\r\n        uint studyId;//  study_id\r\n        bytes32 personId; //    person_id\r\n        bytes32 personName; //    person_name\r\n        uint receiveEther; //    ether\r\n        bytes32 endDate; //  \r\n    }\r\n    \r\n    //    \r\n    struct tardinessTransfer {\r\n        bytes32 senderId; //   person_id\r\n        bytes32 sendName; //   person_name\r\n        bytes32 receiverName; //   person_name\r\n        uint coin; //    \r\n        bytes32 date; //  \r\n    }\r\n\r\n    //  \r\n    // memberInfo  uint   id bytes32  person_id  , \r\n    //   studyMember   \r\n    //  ,    .\r\n    mapping(uint => mapping(bytes32 => studyMember)) memberInfo;\r\n\r\n    // (key, value) = ( [id][id] ->  )\r\n    //       \r\n    mapping(uint => tardinessTransfer[]) getTardinessTransferList;\r\n    //mapping(uint => mapping(uint => LogOfTardinessTransfer)) LogOfTardinessTransfer_mapping;\r\n\r\n    // (key:  id)     \r\n    mapping(uint => studyInfo) studyInfoList;\r\n\r\n    // ()    \r\n    mapping(uint => studyEndTransfer[]) studyEndTransferList;\r\n    // ( )    \r\n    studyEndTransfer[] studyEndManageList;\r\n\r\n    // (key, value) = ( [id][id] ->  )\r\n    //       \r\n    mapping(uint => studyQuizTransfer[]) studyQuizTransferList;\r\n\r\n    //   \r\n    struct mainAccountTransfer {\r\n        bytes32 destination; // \r\n        bytes32 startingPoint; // \r\n        bytes32 date; // \r\n        bytes32 content; //   \r\n         uint etherNum; //  ether\r\n    }\r\n    //     (key:  id)\r\n    mapping(bytes32 => mainAccountTransfer[]) mainAccountTransferList;\r\n\r\n    // studyGroup.sol   ,   \r\n    function setStudyEndTransfer(uint _studyId, bytes32 _endDate) public {\r\n        //   \r\n        studyInfo memory studyInfoItem = studyInfo(_endDate, false); \r\n        //   list  \r\n        studyInfoList[_studyId] = studyInfoItem;\r\n    }\r\n\r\n    //   \r\n    function getStudyEndTransfer(uint _studyId) view external returns(studyInfo) {\r\n        //   \r\n        return (studyInfoList[_studyId]);\r\n    }\r\n\r\n    // ()  \r\n    function getStudyEndTransferManageList() view external returns(studyEndTransfer[]) {\r\n        //   \r\n    \r\n        return (studyEndManageList);\r\n    }\r\n\r\n    // ()  \r\n    function getStudyEndTransferList(uint _study_id) view external returns(studyEndTransfer[]) {\r\n        //   \r\n        return (studyEndTransferList[_study_id]);\r\n    }\r\n\r\n    //   - (  isEndDateDeal  )\r\n    function renameStudyEndTransfer(uint _studyId) public {\r\n        studyInfoList[_studyId].isEndDateDeal = true;\r\n    }\r\n    \r\n    // study     \r\n    function endTheStudy(uint _studyId, bytes32 _personId, uint _receiveEther,  bytes32 _endDate) external payable {\r\n\r\n        //      \r\n        bytes32 _personName = memberInfo[_studyId][_personId].person_name;\r\n        //   \r\n        studyEndTransfer memory studyEndTransferItem = studyEndTransfer(_studyId, _personId, _personName, _receiveEther, _endDate);\r\n        \r\n        //  \r\n        studyEndTransferList[_studyId].push(studyEndTransferItem);\r\n        studyEndManageList.push(studyEndTransferItem);\r\n\r\n        //      \r\n        address managerAccount = 0x6A514E7125B87a7ca5Eb230abD9E02EEbb3D678E;\r\n        // sender js .\r\n        // managerAccount receiver\r\n        managerAccount.transfer(msg.value);\r\n    }\r\n    \r\n    //      \r\n    function setTardinessTransfer(bytes32 _senderId, bytes32 _receiverId, uint _coin, bytes32 _date, uint _study_id) public payable {\r\n        studyMember memory senderInfo = memberInfo[_study_id][_senderId];\r\n        studyMember memory receiverInfo = memberInfo[_study_id][_receiverId];\r\n        //    \r\n       tardinessTransfer memory transferItem = tardinessTransfer(_senderId,senderInfo.person_name, receiverInfo.person_name, _coin, _date); \r\n        \r\n        //     -     \r\n        getTardinessTransferList[_study_id].push(transferItem); \r\n        \r\n        //   \r\n        address receiverAddress = receiverInfo.memberAddress;\r\n        receiverAddress.transfer(msg.value);\r\n    }\r\n\r\n    //         \r\n    function getTardinessTransfer (uint _study_id) view external returns(tardinessTransfer[],uint) {\r\n    //     \r\n        tardinessTransfer[] memory transferList = getTardinessTransferList[_study_id]; //   \r\n        return (transferList,transferList.length);\r\n    }\r\n    \r\n    //  mapping  ->      .\r\n    function getPersonInfoOfStudy(uint _study_id, bytes32 _person_id) view external returns(studyMember) {\r\n          return (memberInfo[_study_id][_person_id]);\r\n    }\r\n\r\n     //  mapping  ->      .\r\n    function setPersonInfoOfStudy(uint _study_id, bytes32 _person_id, address _memberAddress, bytes32 _person_name) public payable {\r\n        memberInfo[_study_id][_person_id] = studyMember(_memberAddress, _person_id, _study_id, _person_name);\r\n        _memberAddress.transfer(msg.value);\r\n    }\r\n\r\n    //     \r\n    function chargeTheCoin(address _receiver) public payable {\r\n        // _receiver msg.value  ether . \r\n        _receiver.transfer(msg.value);\r\n    }\r\n\r\n    //      \r\n    function setStudyQuizTransfer(bytes32 _senderId, bytes32 _receiverId, uint _coin, bytes32 _date, uint _study_id) public payable {\r\n        studyMember memory senderInfo = memberInfo[_study_id][_senderId];\r\n        studyMember memory receiverInfo = memberInfo[_study_id][_receiverId];\r\n        //    \r\n       studyQuizTransfer memory transferItem = studyQuizTransfer(_senderId,senderInfo.person_name, receiverInfo.person_name, _coin, _date); \r\n        \r\n        //     -     \r\n        studyQuizTransferList[_study_id].push(transferItem); \r\n        \r\n        //   \r\n        address receiverAddress = receiverInfo.memberAddress;\r\n        receiverAddress.transfer(msg.value);\r\n    }\r\n\r\n    //         \r\n    function getStudyQuizTransfer (uint _study_id) view external returns(studyQuizTransfer[],uint) {\r\n    //     \r\n        studyQuizTransfer[] memory transferList = studyQuizTransferList[_study_id]; //   \r\n        return (transferList,transferList.length);\r\n    }\r\n   //****************************************\r\n\r\n    //     \r\n    function setMainAccountTransfer (bytes32 personId, bytes32 destination,bytes32 startingPoint,\r\n    uint etherNum, bytes32 date, bytes32 content) public {\r\n        //      \r\n        mainAccountTransfer memory mainAccountTransferItem \r\n        = mainAccountTransfer(destination, startingPoint, date, content, etherNum); \r\n        //     list  \r\n        mainAccountTransferList[personId].push(mainAccountTransferItem);\r\n    }\r\n\r\n    //     \r\n    function getMainAccountTransfer(bytes32 personId) view external returns(mainAccountTransfer[]) {\r\n        //      \r\n        return (mainAccountTransferList[personId]);\r\n    }\r\n    //   \r\n    function etherTransfer(address receiverAddress) public payable {\r\n        receiverAddress.transfer(msg.value);\r\n    }\r\n}\r\n",
  "sourcePath": "C:\\Users\\skskj\\project\\gitLab\\p07\\p0909\\19_p577_a_study_management_platform_using_blockchain\\contracts\\StudyGroup.sol",
  "compiler": {
    "name": "solc",
    "version": "0.4.25+commit.59dbf8f1.Emscripten.clang"
  },
  "schemaVersion": "2.0.2",
  "updatedAt": "2019-09-27T06:35:54.538Z"
}