{
  "contractName": "StudyEndTransfer",
  "abi": [
    {
      "constant": true,
      "inputs": [
        {
          "name": "_study_id",
          "type": "uint256"
        }
      ],
      "name": "getStudyEndTransferList",
      "outputs": [
        {
          "components": [
            {
              "name": "personId",
              "type": "bytes32"
            },
            {
              "name": "personName",
              "type": "bytes32"
            },
            {
              "name": "receiveEther",
              "type": "uint256"
            },
            {
              "name": "endDate",
              "type": "bytes32"
            },
            {
              "name": "idx_hash",
              "type": "bytes32"
            },
            {
              "name": "time",
              "type": "bytes32"
            }
          ],
          "name": "",
          "type": "tuple[]"
        }
      ],
      "payable": false,
      "stateMutability": "view",
      "type": "function"
    },
    {
      "constant": false,
      "inputs": [
        {
          "name": "_studyId",
          "type": "uint256"
        },
        {
          "name": "_personId",
          "type": "bytes32"
        },
        {
          "name": "_personName",
          "type": "bytes32"
        },
        {
          "name": "_receiveEther",
          "type": "uint256"
        },
        {
          "name": "_endDate",
          "type": "bytes32"
        },
        {
          "name": "_idx_hash",
          "type": "bytes32"
        },
        {
          "name": "_time",
          "type": "bytes32"
        }
      ],
      "name": "endTheStudy",
      "outputs": [],
      "payable": true,
      "stateMutability": "payable",
      "type": "function"
    }
  ],
  "bytecode": "0x608060405234801561001057600080fd5b50610543806100206000396000f30060806040526004361061004c576000357c0100000000000000000000000000000000000000000000000000000000900463ffffffff168063370e76f914610051578063ba99ca121461008e575b600080fd5b34801561005d57600080fd5b50610078600480360361007391908101906102df565b6100aa565b604051610085919061049a565b60405180910390f35b6100a860048036036100a39190810190610308565b610180565b005b6060600080838152602001908152602001600020805480602002602001604051908101604052809291908181526020016000905b82821015610175578382906000526020600020906006020160c06040519081016040529081600082015460001916600019168152602001600182015460001916600019168152602001600282015481526020016003820154600019166000191681526020016004820154600019166000191681526020016005820154600019166000191681525050815260200190600101906100de565b505050509050919050565b610188610271565b60c06040519081016040528088600019168152602001876000191681526020018681526020018560001916815260200184600019168152602001836000191681525090506000808981526020019081526020016000208190806001815401808255809150509060018203906000526020600020906006020160009091929091909150600082015181600001906000191690556020820151816001019060001916905560408201518160020155606082015181600301906000191690556080820151816004019060001916905560a082015181600501906000191690555050505050505050505050565b60c0604051908101604052806000801916815260200160008019168152602001600081526020016000801916815260200160008019168152602001600080191681525090565b60006102c382356104f5565b905092915050565b60006102d782356104ff565b905092915050565b6000602082840312156102f157600080fd5b60006102ff848285016102cb565b91505092915050565b600080600080600080600060e0888a03121561032357600080fd5b60006103318a828b016102cb565b97505060206103428a828b016102b7565b96505060406103538a828b016102b7565b95505060606103648a828b016102cb565b94505060806103758a828b016102b7565b93505060a06103868a828b016102b7565b92505060c06103978a828b016102b7565b91505092959891949750929550565b60006103b1826104c9565b8084526020840193506103c3836104bc565b60005b828110156103f5576103d9868351610410565b6103e2826104d4565b915060c0860195506001810190506103c6565b50849250505092915050565b61040a816104e1565b82525050565b60c0820160008201516104266000850182610401565b5060208201516104396020850182610401565b50604082015161044c604085018261048b565b50606082015161045f6060850182610401565b5060808201516104726080850182610401565b5060a082015161048560a0850182610401565b50505050565b610494816104eb565b82525050565b600060208201905081810360008301526104b481846103a6565b905092915050565b6000602082019050919050565b600081519050919050565b6000602082019050919050565b6000819050919050565b6000819050919050565b6000819050919050565b60008190509190505600a265627a7a72305820af61793aab52f6cb6d583b8d733a56179c13657bbcf291223681f293a56bf50e6c6578706572696d656e74616cf50037",
  "source": "pragma solidity ^0.4.25;\r\npragma experimental ABIEncoderV2;\r\n\r\ncontract StudyEndTransfer {\r\n    // 하나의 Study Group 종료 내역 저장 구조체\r\n    struct studyEndTransfer {\r\n        bytes32 personId; \r\n        bytes32 personName; \r\n        uint receiveEther; \r\n        bytes32 endDate; \r\n        bytes32 idx_hash;\r\n        bytes32 time; \r\n    }\r\n    \r\n    // (Study Group 별) 하나의 Study Group 최종 종료 거래 내역 \r\n    mapping(uint => studyEndTransfer[]) studyEndTransferList;\r\n\r\n    // Study Group의 정보 반환\r\n    function getStudyEndTransferList(uint _study_id) view external returns(studyEndTransfer[]) {\r\n        return (studyEndTransferList[_study_id]);\r\n    }\r\n    \r\n    // Study Group 최종 종료 거래 생성\r\n    function endTheStudy(uint _studyId, bytes32 _personId, bytes32 _personName, uint _receiveEther,  bytes32 _endDate, bytes32 _idx_hash, bytes32 _time) external payable {\r\n        studyEndTransfer memory studyEndTransferItem = studyEndTransfer (_personId, _personName, _receiveEther, _endDate, _idx_hash, _time);\r\n        studyEndTransferList[_studyId].push(studyEndTransferItem);\r\n    }\r\n}\r\n",
  "sourcePath": "C:\\Users\\skskj\\project\\git\\p11~12 g_project\\p11\\p1119_2\\app_v2\\contracts\\StudyEndTransfer.sol",
  "compiler": {
    "name": "solc",
    "version": "0.4.25+commit.59dbf8f1.Emscripten.clang"
  },
  "schemaVersion": "2.0.2",
  "updatedAt": "2019-11-21T15:51:09.356Z"
}